{
  "contractName": "Bridge",
  "abi": [
    {
      "inputs": [
        {
          "internalType": "address",
          "name": "_tokenAddress",
          "type": "address"
        },
        {
          "internalType": "address",
          "name": "_owner",
          "type": "address"
        },
        {
          "internalType": "string",
          "name": "_apiUrl",
          "type": "string"
        },
        {
          "internalType": "address",
          "name": "_oracle",
          "type": "address"
        },
        {
          "internalType": "bytes32",
          "name": "_jobId",
          "type": "bytes32"
        },
        {
          "internalType": "uint256",
          "name": "_fee",
          "type": "uint256"
        },
        {
          "internalType": "address",
          "name": "_linkTokenAddress",
          "type": "address"
        }
      ],
      "stateMutability": "nonpayable",
      "type": "constructor"
    },
    {
      "anonymous": false,
      "inputs": [
        {
          "indexed": true,
          "internalType": "address",
          "name": "by",
          "type": "address"
        },
        {
          "indexed": true,
          "internalType": "uint256",
          "name": "nonce",
          "type": "uint256"
        },
        {
          "indexed": false,
          "internalType": "uint256",
          "name": "amount",
          "type": "uint256"
        }
      ],
      "name": "Burn",
      "type": "event"
    },
    {
      "anonymous": false,
      "inputs": [
        {
          "indexed": true,
          "internalType": "bytes32",
          "name": "id",
          "type": "bytes32"
        }
      ],
      "name": "ChainlinkCancelled",
      "type": "event"
    },
    {
      "anonymous": false,
      "inputs": [
        {
          "indexed": true,
          "internalType": "bytes32",
          "name": "id",
          "type": "bytes32"
        }
      ],
      "name": "ChainlinkFulfilled",
      "type": "event"
    },
    {
      "anonymous": false,
      "inputs": [
        {
          "indexed": true,
          "internalType": "bytes32",
          "name": "id",
          "type": "bytes32"
        }
      ],
      "name": "ChainlinkRequested",
      "type": "event"
    },
    {
      "anonymous": false,
      "inputs": [
        {
          "indexed": true,
          "internalType": "address",
          "name": "by",
          "type": "address"
        },
        {
          "indexed": true,
          "internalType": "uint256",
          "name": "nonce",
          "type": "uint256"
        },
        {
          "indexed": false,
          "internalType": "uint256",
          "name": "amount",
          "type": "uint256"
        }
      ],
      "name": "Mint",
      "type": "event"
    },
    {
      "inputs": [],
      "name": "apiUrl",
      "outputs": [
        {
          "internalType": "string",
          "name": "",
          "type": "string"
        }
      ],
      "stateMutability": "view",
      "type": "function",
      "constant": true
    },
    {
      "inputs": [
        {
          "internalType": "address",
          "name": "",
          "type": "address"
        },
        {
          "internalType": "uint256",
          "name": "",
          "type": "uint256"
        }
      ],
      "name": "burnedTokens",
      "outputs": [
        {
          "internalType": "uint256",
          "name": "toChainId",
          "type": "uint256"
        },
        {
          "internalType": "uint256",
          "name": "amount",
          "type": "uint256"
        }
      ],
      "stateMutability": "view",
      "type": "function",
      "constant": true
    },
    {
      "inputs": [
        {
          "internalType": "address",
          "name": "",
          "type": "address"
        },
        {
          "internalType": "uint256",
          "name": "",
          "type": "uint256"
        }
      ],
      "name": "mintedTokens",
      "outputs": [
        {
          "internalType": "bool",
          "name": "",
          "type": "bool"
        }
      ],
      "stateMutability": "view",
      "type": "function",
      "constant": true
    },
    {
      "inputs": [
        {
          "internalType": "address",
          "name": "",
          "type": "address"
        }
      ],
      "name": "nonces",
      "outputs": [
        {
          "internalType": "uint256",
          "name": "",
          "type": "uint256"
        }
      ],
      "stateMutability": "view",
      "type": "function",
      "constant": true
    },
    {
      "inputs": [],
      "name": "owner",
      "outputs": [
        {
          "internalType": "address",
          "name": "",
          "type": "address"
        }
      ],
      "stateMutability": "view",
      "type": "function",
      "constant": true
    },
    {
      "inputs": [],
      "name": "tokenAddress",
      "outputs": [
        {
          "internalType": "address",
          "name": "",
          "type": "address"
        }
      ],
      "stateMutability": "view",
      "type": "function",
      "constant": true
    },
    {
      "inputs": [
        {
          "internalType": "string",
          "name": "_apiUrl",
          "type": "string"
        }
      ],
      "name": "setApiUrl",
      "outputs": [],
      "stateMutability": "nonpayable",
      "type": "function"
    },
    {
      "inputs": [
        {
          "internalType": "address",
          "name": "_oracle",
          "type": "address"
        },
        {
          "internalType": "bytes32",
          "name": "_jobId",
          "type": "bytes32"
        },
        {
          "internalType": "uint256",
          "name": "_fee",
          "type": "uint256"
        }
      ],
      "name": "setOracleArgs",
      "outputs": [],
      "stateMutability": "nonpayable",
      "type": "function"
    },
    {
      "inputs": [
        {
          "internalType": "uint256",
          "name": "nonce",
          "type": "uint256"
        },
        {
          "internalType": "uint256",
          "name": "fromChainId",
          "type": "uint256"
        }
      ],
      "name": "mint",
      "outputs": [
        {
          "internalType": "bytes32",
          "name": "",
          "type": "bytes32"
        }
      ],
      "stateMutability": "nonpayable",
      "type": "function"
    },
    {
      "inputs": [
        {
          "internalType": "bytes32",
          "name": "_requestId",
          "type": "bytes32"
        },
        {
          "internalType": "uint256",
          "name": "_amount",
          "type": "uint256"
        }
      ],
      "name": "fulfill",
      "outputs": [],
      "stateMutability": "nonpayable",
      "type": "function"
    },
    {
      "inputs": [
        {
          "internalType": "uint256",
          "name": "amount",
          "type": "uint256"
        },
        {
          "internalType": "uint256",
          "name": "toChainId",
          "type": "uint256"
        }
      ],
      "name": "burn",
      "outputs": [
        {
          "internalType": "uint256",
          "name": "",
          "type": "uint256"
        }
      ],
      "stateMutability": "nonpayable",
      "type": "function"
    },
    {
      "inputs": [
        {
          "internalType": "address",
          "name": "from",
          "type": "address"
        }
      ],
      "name": "recentlyBurned",
      "outputs": [
        {
          "components": [
            {
              "internalType": "uint256",
              "name": "toChainId",
              "type": "uint256"
            },
            {
              "internalType": "uint256",
              "name": "amount",
              "type": "uint256"
            },
            {
              "internalType": "uint256",
              "name": "nonce",
              "type": "uint256"
            }
          ],
          "internalType": "struct Bridge.BurnedTokenDataWithNonce[]",
          "name": "",
          "type": "tuple[]"
        }
      ],
      "stateMutability": "view",
      "type": "function",
      "constant": true
    },
    {
      "inputs": [
        {
          "internalType": "uint256",
          "name": "nonce",
          "type": "uint256"
        },
        {
          "internalType": "address",
          "name": "from",
          "type": "address"
        }
      ],
      "name": "recentlyMinted",
      "outputs": [
        {
          "internalType": "bool[]",
          "name": "",
          "type": "bool[]"
        }
      ],
      "stateMutability": "view",
      "type": "function",
      "constant": true
    }
  ],
  "bytecode": "0x608060405260016004553480156200001657600080fd5b506040516200396d3803806200396d83398181016040528101906200003c9190620004b0565b86600660006101000a81548173ffffffffffffffffffffffffffffffffffffffff021916908373ffffffffffffffffffffffffffffffffffffffff16021790555085600760006101000a81548173ffffffffffffffffffffffffffffffffffffffff021916908373ffffffffffffffffffffffffffffffffffffffff16021790555084600c9080519060200190620000d692919062000188565b50620000e8816200014460201b60201c565b83600d60006101000a81548173ffffffffffffffffffffffffffffffffffffffff021916908373ffffffffffffffffffffffffffffffffffffffff16021790555082600e8190555081600f8190555050505050505050620005e7565b80600260006101000a81548173ffffffffffffffffffffffffffffffffffffffff021916908373ffffffffffffffffffffffffffffffffffffffff16021790555050565b8280546200019690620005b1565b90600052602060002090601f016020900481019282620001ba576000855562000206565b82601f10620001d557805160ff191683800117855562000206565b8280016001018555821562000206579182015b8281111562000205578251825591602001919060010190620001e8565b5b50905062000215919062000219565b5090565b5b80821115620002345760008160009055506001016200021a565b5090565b6000604051905090565b600080fd5b600080fd5b600073ffffffffffffffffffffffffffffffffffffffff82169050919050565b600062000279826200024c565b9050919050565b6200028b816200026c565b81146200029757600080fd5b50565b600081519050620002ab8162000280565b92915050565b600080fd5b600080fd5b6000601f19601f8301169050919050565b7f4e487b7100000000000000000000000000000000000000000000000000000000600052604160045260246000fd5b6200030682620002bb565b810181811067ffffffffffffffff82111715620003285762000327620002cc565b5b80604052505050565b60006200033d62000238565b90506200034b8282620002fb565b919050565b600067ffffffffffffffff8211156200036e576200036d620002cc565b5b6200037982620002bb565b9050602081019050919050565b60005b83811015620003a657808201518184015260208101905062000389565b83811115620003b6576000848401525b50505050565b6000620003d3620003cd8462000350565b62000331565b905082815260208101848484011115620003f257620003f1620002b6565b5b620003ff84828562000386565b509392505050565b600082601f8301126200041f576200041e620002b1565b5b815162000431848260208601620003bc565b91505092915050565b6000819050919050565b6200044f816200043a565b81146200045b57600080fd5b50565b6000815190506200046f8162000444565b92915050565b6000819050919050565b6200048a8162000475565b81146200049657600080fd5b50565b600081519050620004aa816200047f565b92915050565b600080600080600080600060e0888a031215620004d257620004d162000242565b5b6000620004e28a828b016200029a565b9750506020620004f58a828b016200029a565b965050604088015167ffffffffffffffff81111562000519576200051862000247565b5b620005278a828b0162000407565b95505060606200053a8a828b016200029a565b94505060806200054d8a828b016200045e565b93505060a0620005608a828b0162000499565b92505060c0620005738a828b016200029a565b91505092959891949750929550565b7f4e487b7100000000000000000000000000000000000000000000000000000000600052602260045260246000fd5b60006002820490506001821680620005ca57607f821691505b60208210811415620005e157620005e062000582565b5b50919050565b61337680620005f76000396000f3fe608060405234801561001057600080fd5b50600436106100cf5760003560e01c80637ecebe001161008c5780639d76ea58116100665780639d76ea5814610239578063b390c0ab14610257578063e8c75a3014610287578063f8454600146102a3576100cf565b80637ecebe00146101cd5780638367e120146101fd5780638da5cb5b1461021b576100cf565b8063023ba7c3146100d45780630d981536146101055780631b2ef1ca14610135578063427dcc13146101655780634357855e146101815780637081ee741461019d575b600080fd5b6100ee60048036038101906100e99190612054565b6102d3565b6040516100fc9291906120a3565b60405180910390f35b61011f600480360381019061011a9190612054565b610304565b60405161012c91906120e7565b60405180910390f35b61014f600480360381019061014a9190612102565b610333565b60405161015c919061215b565b60405180910390f35b61017f600480360381019061017a91906121a2565b6105e4565b005b61019b600480360381019061019691906121f5565b6106c8565b005b6101b760048036038101906101b29190612235565b610a03565b6040516101c49190612333565b60405180910390f35b6101e760048036038101906101e29190612355565b610b18565b6040516101f49190612382565b60405180910390f35b610205610b30565b6040516102129190612436565b60405180910390f35b610223610bbe565b6040516102309190612467565b60405180910390f35b610241610be4565b60405161024e9190612467565b60405180910390f35b610271600480360381019061026c9190612102565b610c0a565b60405161027e9190612382565b60405180910390f35b6102a1600480360381019061029c91906125b7565b610e1a565b005b6102bd60048036038101906102b89190612355565b610ec4565b6040516102ca9190612700565b60405180910390f35b6009602052816000526040600020602052806000526040600020600091509150508060000154908060010154905082565b60086020528160005260406000206020528060005260406000206000915091509054906101000a900460ff1681565b6000801515600860003373ffffffffffffffffffffffffffffffffffffffff1673ffffffffffffffffffffffffffffffffffffffff168152602001908152602001600020600085815260200190815260200160002060009054906101000a900460ff161515146103d8576040517f08c379a00000000000000000000000000000000000000000000000000000000081526004016103cf9061276e565b60405180910390fd5b60006103ee600e5430634357855e60e01b61109a565b90506104436040518060400160405280600381526020017f676574000000000000000000000000000000000000000000000000000000000081525061043386866110cb565b8361112c9092919063ffffffff16565b6104c26040518060400160405280600481526020017f70617468000000000000000000000000000000000000000000000000000000008152506040518060400160405280600681526020017f414d4f554e5400000000000000000000000000000000000000000000000000008152508361112c9092919063ffffffff16565b6105146040518060400160405280600581526020017f74696d6573000000000000000000000000000000000000000000000000000000815250670de0b6b3a76400008361115f9092919063ffffffff16565b6000610545600d60009054906101000a900473ffffffffffffffffffffffffffffffffffffffff1683600f54611192565b905060405180604001604052803373ffffffffffffffffffffffffffffffffffffffff16815260200186815250600a600083815260200190815260200160002060008201518160000160006101000a81548173ffffffffffffffffffffffffffffffffffffffff021916908373ffffffffffffffffffffffffffffffffffffffff16021790555060208201518160010155905050809250505092915050565b600760009054906101000a900473ffffffffffffffffffffffffffffffffffffffff1673ffffffffffffffffffffffffffffffffffffffff163373ffffffffffffffffffffffffffffffffffffffff1614610674576040517f08c379a000000000000000000000000000000000000000000000000000000000815260040161066b90612800565b60405180910390fd5b82600d60006101000a81548173ffffffffffffffffffffffffffffffffffffffff021916908373ffffffffffffffffffffffffffffffffffffffff16021790555081600e8190555080600f81905550505050565b816005600082815260200190815260200160002060009054906101000a900473ffffffffffffffffffffffffffffffffffffffff1673ffffffffffffffffffffffffffffffffffffffff163373ffffffffffffffffffffffffffffffffffffffff161461076a576040517f08c379a000000000000000000000000000000000000000000000000000000000815260040161076190612892565b60405180910390fd5b6005600082815260200190815260200160002060006101000a81549073ffffffffffffffffffffffffffffffffffffffff0219169055807f7cc135e0cebb02c3480ae5d74d377283180a2601f8f644edf7987b009316c63a60405160405180910390a26000600a60008581526020019081526020016000206040518060400160405290816000820160009054906101000a900473ffffffffffffffffffffffffffffffffffffffff1673ffffffffffffffffffffffffffffffffffffffff1673ffffffffffffffffffffffffffffffffffffffff1681526020016001820154815250509050600160086000836000015173ffffffffffffffffffffffffffffffffffffffff1673ffffffffffffffffffffffffffffffffffffffff16815260200190815260200160002060008360200151815260200190815260200160002060006101000a81548160ff021916908315150217905550600a6000858152602001908152602001600020600080820160006101000a81549073ffffffffffffffffffffffffffffffffffffffff021916905560018201600090555050600660009054906101000a900473ffffffffffffffffffffffffffffffffffffffff1673ffffffffffffffffffffffffffffffffffffffff166340c10f198260000151856040518363ffffffff1660e01b81526004016109669291906128b2565b6020604051808303816000875af1158015610985573d6000803e3d6000fd5b505050506040513d601f19601f820116820180604052508101906109a99190612907565b5080602001513373ffffffffffffffffffffffffffffffffffffffff167f49995e5dd6158cf69ad3e9777c46755a1a826a446c6416992167462dad033b2a856040516109f59190612382565b60405180910390a350505050565b60606000600567ffffffffffffffff811115610a2257610a2161248c565b5b604051908082528060200260200182016040528015610a505781602001602082028036833780820191505090505b50905060005b6005811015610b0d5780851015610a6c57610b0d565b600860008573ffffffffffffffffffffffffffffffffffffffff1673ffffffffffffffffffffffffffffffffffffffff16815260200190815260200160002060008287610ab99190612963565b815260200190815260200160002060009054906101000a900460ff16828281518110610ae857610ae7612997565b5b6020026020010190151590811515815250508080610b05906129c6565b915050610a56565b508091505092915050565b600b6020528060005260406000206000915090505481565b600c8054610b3d90612a3e565b80601f0160208091040260200160405190810160405280929190818152602001828054610b6990612a3e565b8015610bb65780601f10610b8b57610100808354040283529160200191610bb6565b820191906000526020600020905b815481529060010190602001808311610b9957829003601f168201915b505050505081565b600760009054906101000a900473ffffffffffffffffffffffffffffffffffffffff1681565b600660009054906101000a900473ffffffffffffffffffffffffffffffffffffffff1681565b600080600b60003373ffffffffffffffffffffffffffffffffffffffff1673ffffffffffffffffffffffffffffffffffffffff168152602001908152602001600020549050600660009054906101000a900473ffffffffffffffffffffffffffffffffffffffff1673ffffffffffffffffffffffffffffffffffffffff16639dc29fac33866040518363ffffffff1660e01b8152600401610cac9291906128b2565b6020604051808303816000875af1158015610ccb573d6000803e3d6000fd5b505050506040513d601f19601f82011682018060405250810190610cef9190612907565b50604051806040016040528084815260200185815250600960003373ffffffffffffffffffffffffffffffffffffffff1673ffffffffffffffffffffffffffffffffffffffff16815260200190815260200160002060008381526020019081526020016000206000820151816000015560208201518160010155905050803373ffffffffffffffffffffffffffffffffffffffff167f49995e5dd6158cf69ad3e9777c46755a1a826a446c6416992167462dad033b2a86604051610db39190612382565b60405180910390a3600b60003373ffffffffffffffffffffffffffffffffffffffff1673ffffffffffffffffffffffffffffffffffffffff1681526020019081526020016000206000815480929190610e0b906129c6565b91905055508091505092915050565b600760009054906101000a900473ffffffffffffffffffffffffffffffffffffffff1673ffffffffffffffffffffffffffffffffffffffff163373ffffffffffffffffffffffffffffffffffffffff1614610eaa576040517f08c379a0000000000000000000000000000000000000000000000000000000008152600401610ea190612800565b60405180910390fd5b80600c9080519060200190610ec0929190611e61565b5050565b60606000600b60008473ffffffffffffffffffffffffffffffffffffffff1673ffffffffffffffffffffffffffffffffffffffff1681526020019081526020016000205490506000600567ffffffffffffffff811115610f2757610f2661248c565b5b604051908082528060200260200182016040528015610f6057816020015b610f4d611ee7565b815260200190600190039081610f455790505b50905060005b600581101561108f5780831015610f7c5761108f565b6040518060600160405280600960008873ffffffffffffffffffffffffffffffffffffffff1673ffffffffffffffffffffffffffffffffffffffff16815260200190815260200160002060008487610fd49190612963565b8152602001908152602001600020600001548152602001600960008873ffffffffffffffffffffffffffffffffffffffff1673ffffffffffffffffffffffffffffffffffffffff168152602001908152602001600020600084876110389190612963565b8152602001908152602001600020600101548152602001828561105b9190612963565b81525082828151811061107157611070612997565b5b60200260200101819052508080611087906129c6565b915050610f66565b508092505050919050565b6110a2611f08565b6110aa611f08565b6110c18585858461125e909392919063ffffffff16565b9150509392505050565b6060600c6110d88461130e565b6110f93373ffffffffffffffffffffffffffffffffffffffff16601461146f565b6111028561130e565b6040516020016111159493929190612c24565b604051602081830303815290604052905092915050565b6111438284608001516116ab90919063ffffffff16565b61115a8184608001516116ab90919063ffffffff16565b505050565b6111768284608001516116ab90919063ffffffff16565b61118d8184608001516116d090919063ffffffff16565b505050565b60008060045490506001816111a79190612c83565b6004819055506000634042994660e01b60008087600001513089604001518760018c60800151600001516040516024016111e8989796959493929190612d69565b604051602081830303815290604052907bffffffffffffffffffffffffffffffffffffffffffffffffffffffff19166020820180517bffffffffffffffffffffffffffffffffffffffffffffffffffffffff838183161783525050505090506112538683868461177d565b925050509392505050565b611266611f08565b6112768560800151610100611912565b508385600001818152505082856020019073ffffffffffffffffffffffffffffffffffffffff16908173ffffffffffffffffffffffffffffffffffffffff16815250508185604001907bffffffffffffffffffffffffffffffffffffffffffffffffffffffff191690817bffffffffffffffffffffffffffffffffffffffffffffffffffffffff191681525050849050949350505050565b60606000821415611356576040518060400160405280600181526020017f3000000000000000000000000000000000000000000000000000000000000000815250905061146a565b600082905060005b60008214611388578080611371906129c6565b915050600a826113819190612e1d565b915061135e565b60008167ffffffffffffffff8111156113a4576113a361248c565b5b6040519080825280601f01601f1916602001820160405280156113d65781602001600182028036833780820191505090505b5090505b60008514611463576001826113ef9190612963565b9150600a856113fe9190612e4e565b603061140a9190612c83565b60f81b8183815181106114205761141f612997565b5b60200101907effffffffffffffffffffffffffffffffffffffffffffffffffffffffffffff1916908160001a905350600a8561145c9190612e1d565b94506113da565b8093505050505b919050565b6060600060028360026114829190612e7f565b61148c9190612c83565b67ffffffffffffffff8111156114a5576114a461248c565b5b6040519080825280601f01601f1916602001820160405280156114d75781602001600182028036833780820191505090505b5090507f30000000000000000000000000000000000000000000000000000000000000008160008151811061150f5761150e612997565b5b60200101907effffffffffffffffffffffffffffffffffffffffffffffffffffffffffffff1916908160001a9053507f78000000000000000000000000000000000000000000000000000000000000008160018151811061157357611572612997565b5b60200101907effffffffffffffffffffffffffffffffffffffffffffffffffffffffffffff1916908160001a905350600060018460026115b39190612e7f565b6115bd9190612c83565b90505b600181111561165d577f3031323334353637383961626364656600000000000000000000000000000000600f8616601081106115ff576115fe612997565b5b1a60f81b82828151811061161657611615612997565b5b60200101907effffffffffffffffffffffffffffffffffffffffffffffffffffffffffffff1916908160001a905350600485901c94508061165690612ed9565b90506115c0565b50600084146116a1576040517f08c379a000000000000000000000000000000000000000000000000000000000815260040161169890612f4f565b60405180910390fd5b8091505092915050565b6116b8826003835161197c565b6116cb8183611b0190919063ffffffff16565b505050565b7fffffffffffffffffffffffffffffffffffffffffffffffff0000000000000000811215611707576117028282611b23565b611779565b67ffffffffffffffff811315611726576117218282611b9a565b611778565b6000811261173f5761173a8260008361197c565b611777565b611776826001837fffffffffffffffffffffffffffffffffffffffffffffffffffffffffffffffff6117719190612f79565b61197c565b5b5b5b5050565b600030846040516020016117929291906130c6565b604051602081830303815290604052805190602001209050846005600083815260200190815260200160002060006101000a81548173ffffffffffffffffffffffffffffffffffffffff021916908373ffffffffffffffffffffffffffffffffffffffff160217905550807fb5e6e01e79f91267dc17b4e6314d5d4d03593d2ceee0fbb452b750bd70ea5af960405160405180910390a2600260009054906101000a900473ffffffffffffffffffffffffffffffffffffffff1673ffffffffffffffffffffffffffffffffffffffff16634000aea08685856040518463ffffffff1660e01b8152600401611888939291906130f2565b6020604051808303816000875af11580156118a7573d6000803e3d6000fd5b505050506040513d601f19601f820116820180604052508101906118cb9190612907565b61190a576040517f08c379a0000000000000000000000000000000000000000000000000000000008152600401611901906131a2565b60405180910390fd5b949350505050565b61191a611f75565b60006020836119299190612e4e565b146119555760208261193b9190612e4e565b60206119479190612963565b826119529190612c83565b91505b81836020018181525050604051808452600081528281016020016040525082905092915050565b60178167ffffffffffffffff16116119b3576119ad8160058460ff16901b60ff161784611be690919063ffffffff16565b50611afc565b60ff8167ffffffffffffffff1611611a09576119e2601860058460ff16901b1784611be690919063ffffffff16565b50611a038167ffffffffffffffff16600185611c069092919063ffffffff16565b50611afb565b61ffff8167ffffffffffffffff1611611a6057611a39601960058460ff16901b1784611be690919063ffffffff16565b50611a5a8167ffffffffffffffff16600285611c069092919063ffffffff16565b50611afa565b63ffffffff8167ffffffffffffffff1611611ab957611a92601a60058460ff16901b1784611be690919063ffffffff16565b50611ab38167ffffffffffffffff16600485611c069092919063ffffffff16565b50611af9565b611ad6601b60058460ff16901b1784611be690919063ffffffff16565b50611af78167ffffffffffffffff16600885611c069092919063ffffffff16565b505b5b5b5b505050565b611b09611f75565b611b1b83846000015151848551611c28565b905092915050565b611b4160036005600660ff16901b1783611be690919063ffffffff16565b50611b9682827fffffffffffffffffffffffffffffffffffffffffffffffffffffffffffffffff611b729190612f79565b604051602001611b829190612382565b604051602081830303815290604052611d17565b5050565b611bb860026005600660ff16901b1783611be690919063ffffffff16565b50611be28282604051602001611bce9190612382565b604051602081830303815290604052611d17565b5050565b611bee611f75565b611bfe8384600001515184611d3c565b905092915050565b611c0e611f75565b611c1f848560000151518585611d93565b90509392505050565b611c30611f75565b8251821115611c3e57600080fd5b84602001518285611c4f9190612c83565b1115611c8457611c83856002611c7488602001518887611c6f9190612c83565b611e21565b611c7e9190612e7f565b611e3d565b5b600080865180518760208301019350808887011115611ca35787860182525b60208701925050505b60208410611cea5780518252602082611cc59190612c83565b9150602081611cd49190612c83565b9050602084611ce39190612963565b9350611cac565b60006001856020036101000a03905080198251168184511681811785525050508692505050949350505050565b611d24826002835161197c565b611d378183611b0190919063ffffffff16565b505050565b611d44611f75565b83602001518310611d6a57611d698460028660200151611d649190612e7f565b611e3d565b5b8351805160208583010184815381861415611d86576001820183525b5050508390509392505050565b611d9b611f75565b84602001518483611dac9190612c83565b1115611dd457611dd38560028685611dc49190612c83565b611dce9190612e7f565b611e3d565b5b6000600183610100611de691906132f5565b611df09190612963565b90508551838682010185831982511617815281518588011115611e135784870182525b505085915050949350505050565b600081831115611e3357829050611e37565b8190505b92915050565b600082600001519050611e508383611912565b50611e5b8382611b01565b50505050565b828054611e6d90612a3e565b90600052602060002090601f016020900481019282611e8f5760008555611ed6565b82601f10611ea857805160ff1916838001178555611ed6565b82800160010185558215611ed6579182015b82811115611ed5578251825591602001919060010190611eba565b5b509050611ee39190611f8f565b5090565b60405180606001604052806000815260200160008152602001600081525090565b6040518060a0016040528060008019168152602001600073ffffffffffffffffffffffffffffffffffffffff16815260200160007bffffffffffffffffffffffffffffffffffffffffffffffffffffffff1916815260200160008152602001611f6f611f75565b81525090565b604051806040016040528060608152602001600081525090565b5b80821115611fa8576000816000905550600101611f90565b5090565b6000604051905090565b600080fd5b600080fd5b600073ffffffffffffffffffffffffffffffffffffffff82169050919050565b6000611feb82611fc0565b9050919050565b611ffb81611fe0565b811461200657600080fd5b50565b60008135905061201881611ff2565b92915050565b6000819050919050565b6120318161201e565b811461203c57600080fd5b50565b60008135905061204e81612028565b92915050565b6000806040838503121561206b5761206a611fb6565b5b600061207985828601612009565b925050602061208a8582860161203f565b9150509250929050565b61209d8161201e565b82525050565b60006040820190506120b86000830185612094565b6120c56020830184612094565b9392505050565b60008115159050919050565b6120e1816120cc565b82525050565b60006020820190506120fc60008301846120d8565b92915050565b6000806040838503121561211957612118611fb6565b5b60006121278582860161203f565b92505060206121388582860161203f565b9150509250929050565b6000819050919050565b61215581612142565b82525050565b6000602082019050612170600083018461214c565b92915050565b61217f81612142565b811461218a57600080fd5b50565b60008135905061219c81612176565b92915050565b6000806000606084860312156121bb576121ba611fb6565b5b60006121c986828701612009565b93505060206121da8682870161218d565b92505060406121eb8682870161203f565b9150509250925092565b6000806040838503121561220c5761220b611fb6565b5b600061221a8582860161218d565b925050602061222b8582860161203f565b9150509250929050565b6000806040838503121561224c5761224b611fb6565b5b600061225a8582860161203f565b925050602061226b85828601612009565b9150509250929050565b600081519050919050565b600082825260208201905092915050565b6000819050602082019050919050565b6122aa816120cc565b82525050565b60006122bc83836122a1565b60208301905092915050565b6000602082019050919050565b60006122e082612275565b6122ea8185612280565b93506122f583612291565b8060005b8381101561232657815161230d88826122b0565b9750612318836122c8565b9250506001810190506122f9565b5085935050505092915050565b6000602082019050818103600083015261234d81846122d5565b905092915050565b60006020828403121561236b5761236a611fb6565b5b600061237984828501612009565b91505092915050565b60006020820190506123976000830184612094565b92915050565b600081519050919050565b600082825260208201905092915050565b60005b838110156123d75780820151818401526020810190506123bc565b838111156123e6576000848401525b50505050565b6000601f19601f8301169050919050565b60006124088261239d565b61241281856123a8565b93506124228185602086016123b9565b61242b816123ec565b840191505092915050565b6000602082019050818103600083015261245081846123fd565b905092915050565b61246181611fe0565b82525050565b600060208201905061247c6000830184612458565b92915050565b600080fd5b600080fd5b7f4e487b7100000000000000000000000000000000000000000000000000000000600052604160045260246000fd5b6124c4826123ec565b810181811067ffffffffffffffff821117156124e3576124e261248c565b5b80604052505050565b60006124f6611fac565b905061250282826124bb565b919050565b600067ffffffffffffffff8211156125225761252161248c565b5b61252b826123ec565b9050602081019050919050565b82818337600083830152505050565b600061255a61255584612507565b6124ec565b90508281526020810184848401111561257657612575612487565b5b612581848285612538565b509392505050565b600082601f83011261259e5761259d612482565b5b81356125ae848260208601612547565b91505092915050565b6000602082840312156125cd576125cc611fb6565b5b600082013567ffffffffffffffff8111156125eb576125ea611fbb565b5b6125f784828501612589565b91505092915050565b600081519050919050565b600082825260208201905092915050565b6000819050602082019050919050565b6126358161201e565b82525050565b606082016000820151612651600085018261262c565b506020820151612664602085018261262c565b506040820151612677604085018261262c565b50505050565b6000612689838361263b565b60608301905092915050565b6000602082019050919050565b60006126ad82612600565b6126b7818561260b565b93506126c28361261c565b8060005b838110156126f35781516126da888261267d565b97506126e583612695565b9250506001810190506126c6565b5085935050505092915050565b6000602082019050818103600083015261271a81846126a2565b905092915050565b7f427269646765204572726f723a20416c7265616479206d696e74656400000000600082015250565b6000612758601c836123a8565b915061276382612722565b602082019050919050565b600060208201905081810360008301526127878161274b565b9050919050565b7f427269646765204572726f723a204f6e6c79206f776e65722063616e2063616c60008201527f6c20746869732066756e6374696f6e0000000000000000000000000000000000602082015250565b60006127ea602f836123a8565b91506127f58261278e565b604082019050919050565b60006020820190508181036000830152612819816127dd565b9050919050565b7f536f75726365206d75737420626520746865206f7261636c65206f662074686560008201527f2072657175657374000000000000000000000000000000000000000000000000602082015250565b600061287c6028836123a8565b915061288782612820565b604082019050919050565b600060208201905081810360008301526128ab8161286f565b9050919050565b60006040820190506128c76000830185612458565b6128d46020830184612094565b9392505050565b6128e4816120cc565b81146128ef57600080fd5b50565b600081519050612901816128db565b92915050565b60006020828403121561291d5761291c611fb6565b5b600061292b848285016128f2565b91505092915050565b7f4e487b7100000000000000000000000000000000000000000000000000000000600052601160045260246000fd5b600061296e8261201e565b91506129798361201e565b92508282101561298c5761298b612934565b5b828203905092915050565b7f4e487b7100000000000000000000000000000000000000000000000000000000600052603260045260246000fd5b60006129d18261201e565b91507fffffffffffffffffffffffffffffffffffffffffffffffffffffffffffffffff821415612a0457612a03612934565b5b600182019050919050565b7f4e487b7100000000000000000000000000000000000000000000000000000000600052602260045260246000fd5b60006002820490506001821680612a5657607f821691505b60208210811415612a6a57612a69612a0f565b5b50919050565b600081905092915050565b60008190508160005260206000209050919050565b60008154612a9d81612a3e565b612aa78186612a70565b94506001821660008114612ac25760018114612ad357612b06565b60ff19831686528186019350612b06565b612adc85612a7b565b60005b83811015612afe57815481890152600182019150602081019050612adf565b838801955050505b50505092915050565b7f3f6e6f6e63653d00000000000000000000000000000000000000000000000000600082015250565b6000612b45600783612a70565b9150612b5082612b0f565b600782019050919050565b6000612b668261239d565b612b708185612a70565b9350612b808185602086016123b9565b80840191505092915050565b7f26616464726573733d0000000000000000000000000000000000000000000000600082015250565b6000612bc2600983612a70565b9150612bcd82612b8c565b600982019050919050565b7f2666726f6d436861696e49643d00000000000000000000000000000000000000600082015250565b6000612c0e600d83612a70565b9150612c1982612bd8565b600d82019050919050565b6000612c308287612a90565b9150612c3b82612b38565b9150612c478286612b5b565b9150612c5282612bb5565b9150612c5e8285612b5b565b9150612c6982612c01565b9150612c758284612b5b565b915081905095945050505050565b6000612c8e8261201e565b9150612c998361201e565b9250827fffffffffffffffffffffffffffffffffffffffffffffffffffffffffffffffff03821115612cce57612ccd612934565b5b828201905092915050565b60007fffffffff0000000000000000000000000000000000000000000000000000000082169050919050565b612d0e81612cd9565b82525050565b600081519050919050565b600082825260208201905092915050565b6000612d3b82612d14565b612d458185612d1f565b9350612d558185602086016123b9565b612d5e816123ec565b840191505092915050565b600061010082019050612d7f600083018b612458565b612d8c602083018a612094565b612d99604083018961214c565b612da66060830188612458565b612db36080830187612d05565b612dc060a0830186612094565b612dcd60c0830185612094565b81810360e0830152612ddf8184612d30565b90509998505050505050505050565b7f4e487b7100000000000000000000000000000000000000000000000000000000600052601260045260246000fd5b6000612e288261201e565b9150612e338361201e565b925082612e4357612e42612dee565b5b828204905092915050565b6000612e598261201e565b9150612e648361201e565b925082612e7457612e73612dee565b5b828206905092915050565b6000612e8a8261201e565b9150612e958361201e565b9250817fffffffffffffffffffffffffffffffffffffffffffffffffffffffffffffffff0483118215151615612ece57612ecd612934565b5b828202905092915050565b6000612ee48261201e565b91506000821415612ef857612ef7612934565b5b600182039050919050565b7f537472696e67733a20686578206c656e67746820696e73756666696369656e74600082015250565b6000612f396020836123a8565b9150612f4482612f03565b602082019050919050565b60006020820190508181036000830152612f6881612f2c565b9050919050565b6000819050919050565b6000612f8482612f6f565b9150612f8f83612f6f565b9250827f800000000000000000000000000000000000000000000000000000000000000001821260008412151615612fca57612fc9612934565b5b827f7fffffffffffffffffffffffffffffffffffffffffffffffffffffffffffffff01821360008412161561300257613001612934565b5b828203905092915050565b6000819050919050565b600061303261302d61302884611fc0565b61300d565b611fc0565b9050919050565b600061304482613017565b9050919050565b600061305682613039565b9050919050565b60008160601b9050919050565b60006130758261305d565b9050919050565b60006130878261306a565b9050919050565b61309f61309a8261304b565b61307c565b82525050565b6000819050919050565b6130c06130bb8261201e565b6130a5565b82525050565b60006130d2828561308e565b6014820191506130e282846130af565b6020820191508190509392505050565b60006060820190506131076000830186612458565b6131146020830185612094565b81810360408301526131268184612d30565b9050949350505050565b7f756e61626c6520746f207472616e73666572416e6443616c6c20746f206f726160008201527f636c650000000000000000000000000000000000000000000000000000000000602082015250565b600061318c6023836123a8565b915061319782613130565b604082019050919050565b600060208201905081810360008301526131bb8161317f565b9050919050565b60008160011c9050919050565b6000808291508390505b6001851115613219578086048111156131f5576131f4612934565b5b60018516156132045780820291505b8081029050613212856131c2565b94506131d9565b94509492505050565b60008261323257600190506132ee565b8161324057600090506132ee565b816001811461325657600281146132605761328f565b60019150506132ee565b60ff84111561327257613271612934565b5b8360020a91508482111561328957613288612934565b5b506132ee565b5060208310610133831016604e8410600b84101617156132c45782820a9050838111156132bf576132be612934565b5b6132ee565b6132d184848460016131cf565b925090508184048111156132e8576132e7612934565b5b81810290505b9392505050565b60006133008261201e565b915061330b8361201e565b92506133387fffffffffffffffffffffffffffffffffffffffffffffffffffffffffffffffff8484613222565b90509291505056fea26469706673582212208bd18082fd6ba0f2999d14477a77008dd62b63226f8f93f1c5cf96b87157ac4564736f6c634300080b0033",
  "immutableReferences": {},
  "source": "// SPDX-License-Identifier: MIT\r\n\r\npragma solidity ^0.8.0;\r\n\r\nimport \"@chainlink/contracts/src/v0.8/ChainlinkClient.sol\";\r\nimport \"@openzeppelin/contracts/utils/Strings.sol\";\r\n\r\nimport \"./HornBill.sol\";\r\n\r\ncontract Bridge is ChainlinkClient {\r\n    using Chainlink for Chainlink.Request;\r\n\r\n    address public tokenAddress; // address of the token contract\r\n    address public owner;\r\n\r\n    // used when request is fulfilled\r\n    struct JobData {\r\n        address sender;\r\n        uint256 nonce;\r\n    }\r\n\r\n    // to remember the which chain user wants to mint [amount] token after burning\r\n    struct BurnedTokenData {\r\n        uint256 toChainId;\r\n        uint256 amount;\r\n    }\r\n    struct BurnedTokenDataWithNonce {\r\n        uint256 toChainId;\r\n        uint256 amount;\r\n        uint256 nonce;\r\n    }\r\n\r\n    //      from                 nonce    true/false\r\n    mapping(address => mapping(uint256 => bool)) public mintedTokens;\r\n    //      from                 nonce    amount\r\n    mapping(address => mapping(uint256 => BurnedTokenData)) public burnedTokens;\r\n    mapping(bytes32 => JobData) internal reqIdToJobData;\r\n    mapping(address => uint256) public nonces;\r\n\r\n    string public apiUrl;\r\n\r\n    address private oracle;\r\n    bytes32 private jobId;\r\n    uint256 private fee;\r\n\r\n    constructor(\r\n        address _tokenAddress,\r\n        address _owner,\r\n        string memory _apiUrl,\r\n        address _oracle,\r\n        bytes32 _jobId,\r\n        uint256 _fee,\r\n        address _linkTokenAddress\r\n    ) {\r\n        tokenAddress = _tokenAddress;\r\n        owner = _owner;\r\n        apiUrl = _apiUrl;\r\n\r\n        setChainlinkToken(_linkTokenAddress);\r\n        oracle = _oracle;\r\n        jobId = _jobId;\r\n        fee = _fee;\r\n    }\r\n\r\n    event Burn(address indexed by, uint256 indexed nonce, uint256 amount);\r\n    event Mint(address indexed by, uint256 indexed nonce, uint256 amount);\r\n\r\n    modifier onlyOwner() {\r\n        require(\r\n            msg.sender == owner,\r\n            \"Bridge Error: Only owner can call this function\"\r\n        );\r\n        _;\r\n    }\r\n\r\n    function setApiUrl(string memory _apiUrl) external onlyOwner {\r\n        apiUrl = _apiUrl;\r\n    }\r\n\r\n    function setOracleArgs(\r\n        address _oracle,\r\n        bytes32 _jobId,\r\n        uint256 _fee\r\n    ) external onlyOwner {\r\n        oracle = _oracle;\r\n        jobId = _jobId;\r\n        fee = _fee;\r\n    }\r\n\r\n    function buildApiUrl(uint256 nonce, uint256 fromChainId)\r\n        internal\r\n        view\r\n        returns (string memory)\r\n    {\r\n        return\r\n            string(\r\n                abi.encodePacked(\r\n                    apiUrl,\r\n                    \"?nonce=\",\r\n                    Strings.toString(nonce),\r\n                    \"&address=\",\r\n                    Strings.toHexString(uint160(msg.sender), 20),\r\n                    \"&fromChainId=\",\r\n                    Strings.toString(fromChainId)\r\n                )\r\n            );\r\n    }\r\n\r\n    // uses chainlink to call the api which will return the amount of tokens burend on other chain\r\n    function mint(uint256 nonce, uint256 fromChainId)\r\n        external\r\n        returns (bytes32)\r\n    {\r\n        require(\r\n            mintedTokens[msg.sender][nonce] == false,\r\n            \"Bridge Error: Already minted\"\r\n        );\r\n\r\n        // build the request\r\n        Chainlink.Request memory request = buildChainlinkRequest(\r\n            jobId,\r\n            address(this),\r\n            this.fulfill.selector\r\n        );\r\n\r\n        request.add(\"get\", buildApiUrl(nonce, fromChainId));\r\n        // {\r\n        //    AMOUNT: XXXXX\r\n        // }\r\n        request.add(\"path\", \"AMOUNT\");\r\n        request.addInt(\"times\", 10**18);\r\n\r\n        // send the request\r\n        bytes32 reqId = sendChainlinkRequestTo(oracle, request, fee);\r\n        // store request id\r\n        reqIdToJobData[reqId] = JobData(msg.sender, nonce);\r\n        return reqId;\r\n    }\r\n\r\n    function fulfill(bytes32 _requestId, uint256 _amount)\r\n        public\r\n        recordChainlinkFulfillment(_requestId)\r\n    {\r\n        // get the job data(i.e. sender, nonce) using request id\r\n        JobData memory jobData = reqIdToJobData[_requestId];\r\n\r\n        // set the state to minted\r\n        mintedTokens[jobData.sender][jobData.nonce] = true;\r\n\r\n        // delete the job data\r\n        delete reqIdToJobData[_requestId];\r\n\r\n        // mint\r\n        HornBill(tokenAddress).mint(jobData.sender, _amount);\r\n\r\n        // event\r\n        emit Burn(msg.sender, jobData.nonce, _amount);\r\n    }\r\n\r\n    function burn(uint256 amount, uint256 toChainId)\r\n        external\r\n        returns (uint256)\r\n    {\r\n        uint256 nonce = nonces[msg.sender];\r\n        HornBill(tokenAddress).burn(msg.sender, amount);\r\n        burnedTokens[msg.sender][nonce] = BurnedTokenData(toChainId, amount);\r\n        emit Burn(msg.sender, nonce, amount);\r\n        nonces[msg.sender]++;\r\n        return nonce;\r\n    }\r\n\r\n    function recentlyBurned(address from)\r\n        public\r\n        view\r\n        returns (BurnedTokenDataWithNonce[] memory)\r\n    {\r\n        uint256 nonce = nonces[from];\r\n        BurnedTokenDataWithNonce[]\r\n            memory last5Burned = new BurnedTokenDataWithNonce[](5);\r\n\r\n        for (uint256 i = 0; i < 5; i++) {\r\n            if (nonce < i) {\r\n                break;\r\n            }\r\n            last5Burned[i] = BurnedTokenDataWithNonce(\r\n                burnedTokens[from][nonce - i].toChainId,\r\n                burnedTokens[from][nonce - i].amount,\r\n                nonce - i\r\n            );\r\n        }\r\n\r\n        return last5Burned;\r\n    }\r\n\r\n    function recentlyMinted(uint256 nonce, address from)\r\n        public\r\n        view\r\n        returns (bool[] memory)\r\n    {\r\n        bool[] memory minted = new bool[](5);\r\n        for (uint256 i = 0; i < 5; i++) {\r\n            if (nonce < i) {\r\n                break;\r\n            }\r\n            minted[i] = mintedTokens[from][nonce - i];\r\n        }\r\n\r\n        return minted;\r\n    }\r\n}\r\n",
  "sourcePath": "C:\\Users\\Spidy\\Desktop\\hornbill_token\\contracts\\Bridge.sol",
  "compiler": {
    "name": "solc",
    "version": "0.8.11+commit.d7f03943.Emscripten.clang"
  },
  "schemaVersion": "3.4.5",
  "updatedAt": "2022-05-25T02:48:35.736Z",
  "networkType": "ethereum",
  "devdoc": {
    "kind": "dev",
    "methods": {},
    "version": 1
  },
  "userdoc": {
    "kind": "user",
    "methods": {},
    "version": 1
  }
}