{
  "contractName": "Bridge",
  "abi": [
    {
      "inputs": [
        {
          "internalType": "address",
          "name": "_tokenAddress",
          "type": "address"
        },
        {
          "internalType": "address",
          "name": "_owner",
          "type": "address"
        },
        {
          "internalType": "string",
          "name": "_apiUrl",
          "type": "string"
        },
        {
          "internalType": "address",
          "name": "_oracle",
          "type": "address"
        },
        {
          "internalType": "bytes32",
          "name": "_jobId",
          "type": "bytes32"
        },
        {
          "internalType": "uint256",
          "name": "_fee",
          "type": "uint256"
        },
        {
          "internalType": "address",
          "name": "_linkTokenAddress",
          "type": "address"
        }
      ],
      "stateMutability": "nonpayable",
      "type": "constructor"
    },
    {
      "anonymous": false,
      "inputs": [
        {
          "indexed": true,
          "internalType": "bytes32",
          "name": "id",
          "type": "bytes32"
        }
      ],
      "name": "ChainlinkCancelled",
      "type": "event"
    },
    {
      "anonymous": false,
      "inputs": [
        {
          "indexed": true,
          "internalType": "bytes32",
          "name": "id",
          "type": "bytes32"
        }
      ],
      "name": "ChainlinkFulfilled",
      "type": "event"
    },
    {
      "anonymous": false,
      "inputs": [
        {
          "indexed": true,
          "internalType": "bytes32",
          "name": "id",
          "type": "bytes32"
        }
      ],
      "name": "ChainlinkRequested",
      "type": "event"
    },
    {
      "inputs": [],
      "name": "apiUrl",
      "outputs": [
        {
          "internalType": "string",
          "name": "",
          "type": "string"
        }
      ],
      "stateMutability": "view",
      "type": "function"
    },
    {
      "inputs": [
        {
          "internalType": "address",
          "name": "",
          "type": "address"
        },
        {
          "internalType": "uint256",
          "name": "",
          "type": "uint256"
        }
      ],
      "name": "burnedTokens",
      "outputs": [
        {
          "internalType": "uint256",
          "name": "toChainId",
          "type": "uint256"
        },
        {
          "internalType": "uint256",
          "name": "amount",
          "type": "uint256"
        }
      ],
      "stateMutability": "view",
      "type": "function"
    },
    {
      "inputs": [
        {
          "internalType": "address",
          "name": "",
          "type": "address"
        },
        {
          "internalType": "uint256",
          "name": "",
          "type": "uint256"
        }
      ],
      "name": "mintedTokens",
      "outputs": [
        {
          "internalType": "bool",
          "name": "",
          "type": "bool"
        }
      ],
      "stateMutability": "view",
      "type": "function"
    },
    {
      "inputs": [
        {
          "internalType": "address",
          "name": "",
          "type": "address"
        }
      ],
      "name": "nonces",
      "outputs": [
        {
          "internalType": "uint256",
          "name": "",
          "type": "uint256"
        }
      ],
      "stateMutability": "view",
      "type": "function"
    },
    {
      "inputs": [],
      "name": "owner",
      "outputs": [
        {
          "internalType": "address",
          "name": "",
          "type": "address"
        }
      ],
      "stateMutability": "view",
      "type": "function"
    },
    {
      "inputs": [],
      "name": "tokenAddress",
      "outputs": [
        {
          "internalType": "address",
          "name": "",
          "type": "address"
        }
      ],
      "stateMutability": "view",
      "type": "function"
    },
    {
      "inputs": [
        {
          "internalType": "string",
          "name": "_apiUrl",
          "type": "string"
        }
      ],
      "name": "setApiUrl",
      "outputs": [],
      "stateMutability": "nonpayable",
      "type": "function"
    },
    {
      "inputs": [
        {
          "internalType": "address",
          "name": "_oracle",
          "type": "address"
        },
        {
          "internalType": "bytes32",
          "name": "_jobId",
          "type": "bytes32"
        },
        {
          "internalType": "uint256",
          "name": "_fee",
          "type": "uint256"
        }
      ],
      "name": "setOracleArgs",
      "outputs": [],
      "stateMutability": "nonpayable",
      "type": "function"
    },
    {
      "inputs": [
        {
          "internalType": "uint256",
          "name": "nonce",
          "type": "uint256"
        },
        {
          "internalType": "uint256",
          "name": "fromChainId",
          "type": "uint256"
        }
      ],
      "name": "mint",
      "outputs": [
        {
          "internalType": "bytes32",
          "name": "",
          "type": "bytes32"
        }
      ],
      "stateMutability": "nonpayable",
      "type": "function"
    },
    {
      "inputs": [
        {
          "internalType": "bytes32",
          "name": "_requestId",
          "type": "bytes32"
        },
        {
          "internalType": "uint256",
          "name": "_amount",
          "type": "uint256"
        }
      ],
      "name": "fulfill",
      "outputs": [],
      "stateMutability": "nonpayable",
      "type": "function"
    },
    {
      "inputs": [
        {
          "internalType": "uint256",
          "name": "amount",
          "type": "uint256"
        },
        {
          "internalType": "uint256",
          "name": "toChainId",
          "type": "uint256"
        }
      ],
      "name": "burn",
      "outputs": [
        {
          "internalType": "uint256",
          "name": "",
          "type": "uint256"
        }
      ],
      "stateMutability": "nonpayable",
      "type": "function"
    }
  ],
  "bytecode": "0x608060405260016004553480156200001657600080fd5b50604051620032f7380380620032f783398181016040528101906200003c9190620004b0565b86600660006101000a81548173ffffffffffffffffffffffffffffffffffffffff021916908373ffffffffffffffffffffffffffffffffffffffff16021790555085600760006101000a81548173ffffffffffffffffffffffffffffffffffffffff021916908373ffffffffffffffffffffffffffffffffffffffff16021790555084600c9080519060200190620000d692919062000188565b50620000e8816200014460201b60201c565b83600d60006101000a81548173ffffffffffffffffffffffffffffffffffffffff021916908373ffffffffffffffffffffffffffffffffffffffff16021790555082600e8190555081600f8190555050505050505050620005e7565b80600260006101000a81548173ffffffffffffffffffffffffffffffffffffffff021916908373ffffffffffffffffffffffffffffffffffffffff16021790555050565b8280546200019690620005b1565b90600052602060002090601f016020900481019282620001ba576000855562000206565b82601f10620001d557805160ff191683800117855562000206565b8280016001018555821562000206579182015b8281111562000205578251825591602001919060010190620001e8565b5b50905062000215919062000219565b5090565b5b80821115620002345760008160009055506001016200021a565b5090565b6000604051905090565b600080fd5b600080fd5b600073ffffffffffffffffffffffffffffffffffffffff82169050919050565b600062000279826200024c565b9050919050565b6200028b816200026c565b81146200029757600080fd5b50565b600081519050620002ab8162000280565b92915050565b600080fd5b600080fd5b6000601f19601f8301169050919050565b7f4e487b7100000000000000000000000000000000000000000000000000000000600052604160045260246000fd5b6200030682620002bb565b810181811067ffffffffffffffff82111715620003285762000327620002cc565b5b80604052505050565b60006200033d62000238565b90506200034b8282620002fb565b919050565b600067ffffffffffffffff8211156200036e576200036d620002cc565b5b6200037982620002bb565b9050602081019050919050565b60005b83811015620003a657808201518184015260208101905062000389565b83811115620003b6576000848401525b50505050565b6000620003d3620003cd8462000350565b62000331565b905082815260208101848484011115620003f257620003f1620002b6565b5b620003ff84828562000386565b509392505050565b600082601f8301126200041f576200041e620002b1565b5b815162000431848260208601620003bc565b91505092915050565b6000819050919050565b6200044f816200043a565b81146200045b57600080fd5b50565b6000815190506200046f8162000444565b92915050565b6000819050919050565b6200048a8162000475565b81146200049657600080fd5b50565b600081519050620004aa816200047f565b92915050565b600080600080600080600060e0888a031215620004d257620004d162000242565b5b6000620004e28a828b016200029a565b9750506020620004f58a828b016200029a565b965050604088015167ffffffffffffffff81111562000519576200051862000247565b5b620005278a828b0162000407565b95505060606200053a8a828b016200029a565b94505060806200054d8a828b016200045e565b93505060a0620005608a828b0162000499565b92505060c0620005738a828b016200029a565b91505092959891949750929550565b7f4e487b7100000000000000000000000000000000000000000000000000000000600052602260045260246000fd5b60006002820490506001821680620005ca57607f821691505b60208210811415620005e157620005e062000582565b5b50919050565b612d0080620005f76000396000f3fe608060405234801561001057600080fd5b50600436106100a95760003560e01c80637ecebe00116100715780637ecebe00146101775780638367e120146101a75780638da5cb5b146101c55780639d76ea58146101e3578063b390c0ab14610201578063e8c75a3014610231576100a9565b8063023ba7c3146100ae5780630d981536146100df5780631b2ef1ca1461010f578063427dcc131461013f5780634357855e1461015b575b600080fd5b6100c860048036038101906100c39190611c20565b61024d565b6040516100d6929190611c6f565b60405180910390f35b6100f960048036038101906100f49190611c20565b61027e565b6040516101069190611cb3565b60405180910390f35b61012960048036038101906101249190611cce565b6102ad565b6040516101369190611d27565b60405180910390f35b61015960048036038101906101549190611d6e565b61055e565b005b61017560048036038101906101709190611dc1565b610642565b005b610191600480360381019061018c9190611e01565b61092a565b60405161019e9190611e2e565b60405180910390f35b6101af610942565b6040516101bc9190611ee2565b60405180910390f35b6101cd6109d0565b6040516101da9190611f13565b60405180910390f35b6101eb6109f6565b6040516101f89190611f13565b60405180910390f35b61021b60048036038101906102169190611cce565b610a1c565b6040516102289190611e2e565b60405180910390f35b61024b60048036038101906102469190612063565b610bdd565b005b6009602052816000526040600020602052806000526040600020600091509150508060000154908060010154905082565b60086020528160005260406000206020528060005260406000206000915091509054906101000a900460ff1681565b6000801515600860003373ffffffffffffffffffffffffffffffffffffffff1673ffffffffffffffffffffffffffffffffffffffff168152602001908152602001600020600085815260200190815260200160002060009054906101000a900460ff16151514610352576040517f08c379a0000000000000000000000000000000000000000000000000000000008152600401610349906120f8565b60405180910390fd5b6000610368600e5430634357855e60e01b610c87565b90506103bd6040518060400160405280600381526020017f67657400000000000000000000000000000000000000000000000000000000008152506103ad8686610cb8565b83610d199092919063ffffffff16565b61043c6040518060400160405280600481526020017f70617468000000000000000000000000000000000000000000000000000000008152506040518060400160405280600681526020017f414d4f554e54000000000000000000000000000000000000000000000000000081525083610d199092919063ffffffff16565b61048e6040518060400160405280600581526020017f74696d6573000000000000000000000000000000000000000000000000000000815250670de0b6b3a764000083610d4c9092919063ffffffff16565b60006104bf600d60009054906101000a900473ffffffffffffffffffffffffffffffffffffffff1683600f54610d7f565b905060405180604001604052803373ffffffffffffffffffffffffffffffffffffffff16815260200186815250600a600083815260200190815260200160002060008201518160000160006101000a81548173ffffffffffffffffffffffffffffffffffffffff021916908373ffffffffffffffffffffffffffffffffffffffff16021790555060208201518160010155905050809250505092915050565b600760009054906101000a900473ffffffffffffffffffffffffffffffffffffffff1673ffffffffffffffffffffffffffffffffffffffff163373ffffffffffffffffffffffffffffffffffffffff16146105ee576040517f08c379a00000000000000000000000000000000000000000000000000000000081526004016105e59061218a565b60405180910390fd5b82600d60006101000a81548173ffffffffffffffffffffffffffffffffffffffff021916908373ffffffffffffffffffffffffffffffffffffffff16021790555081600e8190555080600f81905550505050565b816005600082815260200190815260200160002060009054906101000a900473ffffffffffffffffffffffffffffffffffffffff1673ffffffffffffffffffffffffffffffffffffffff163373ffffffffffffffffffffffffffffffffffffffff16146106e4576040517f08c379a00000000000000000000000000000000000000000000000000000000081526004016106db9061221c565b60405180910390fd5b6005600082815260200190815260200160002060006101000a81549073ffffffffffffffffffffffffffffffffffffffff0219169055807f7cc135e0cebb02c3480ae5d74d377283180a2601f8f644edf7987b009316c63a60405160405180910390a26000600a60008581526020019081526020016000206040518060400160405290816000820160009054906101000a900473ffffffffffffffffffffffffffffffffffffffff1673ffffffffffffffffffffffffffffffffffffffff1673ffffffffffffffffffffffffffffffffffffffff1681526020016001820154815250509050600160086000836000015173ffffffffffffffffffffffffffffffffffffffff1673ffffffffffffffffffffffffffffffffffffffff16815260200190815260200160002060008360200151815260200190815260200160002060006101000a81548160ff021916908315150217905550600a6000858152602001908152602001600020600080820160006101000a81549073ffffffffffffffffffffffffffffffffffffffff021916905560018201600090555050600660009054906101000a900473ffffffffffffffffffffffffffffffffffffffff1673ffffffffffffffffffffffffffffffffffffffff166340c10f198260000151856040518363ffffffff1660e01b81526004016108e092919061223c565b6020604051808303816000875af11580156108ff573d6000803e3d6000fd5b505050506040513d601f19601f820116820180604052508101906109239190612291565b5050505050565b600b6020528060005260406000206000915090505481565b600c805461094f906122ed565b80601f016020809104026020016040519081016040528092919081815260200182805461097b906122ed565b80156109c85780601f1061099d576101008083540402835291602001916109c8565b820191906000526020600020905b8154815290600101906020018083116109ab57829003601f168201915b505050505081565b600760009054906101000a900473ffffffffffffffffffffffffffffffffffffffff1681565b600660009054906101000a900473ffffffffffffffffffffffffffffffffffffffff1681565b600080600b60003373ffffffffffffffffffffffffffffffffffffffff1673ffffffffffffffffffffffffffffffffffffffff168152602001908152602001600020549050600660009054906101000a900473ffffffffffffffffffffffffffffffffffffffff1673ffffffffffffffffffffffffffffffffffffffff16639dc29fac33866040518363ffffffff1660e01b8152600401610abe92919061223c565b6020604051808303816000875af1158015610add573d6000803e3d6000fd5b505050506040513d601f19601f82011682018060405250810190610b019190612291565b50604051806040016040528084815260200185815250600960003373ffffffffffffffffffffffffffffffffffffffff1673ffffffffffffffffffffffffffffffffffffffff16815260200190815260200160002060008381526020019081526020016000206000820151816000015560208201518160010155905050600b60003373ffffffffffffffffffffffffffffffffffffffff1673ffffffffffffffffffffffffffffffffffffffff1681526020019081526020016000206000815480929190610bce9061234e565b91905055508091505092915050565b600760009054906101000a900473ffffffffffffffffffffffffffffffffffffffff1673ffffffffffffffffffffffffffffffffffffffff163373ffffffffffffffffffffffffffffffffffffffff1614610c6d576040517f08c379a0000000000000000000000000000000000000000000000000000000008152600401610c649061218a565b60405180910390fd5b80600c9080519060200190610c83929190611a4e565b5050565b610c8f611ad4565b610c97611ad4565b610cae85858584610e4b909392919063ffffffff16565b9150509392505050565b6060600c610cc584610efb565b610ce63373ffffffffffffffffffffffffffffffffffffffff16601461105c565b610cef85610efb565b604051602001610d02949392919061254b565b604051602081830303815290604052905092915050565b610d3082846080015161129890919063ffffffff16565b610d4781846080015161129890919063ffffffff16565b505050565b610d6382846080015161129890919063ffffffff16565b610d7a8184608001516112bd90919063ffffffff16565b505050565b6000806004549050600181610d9491906125aa565b6004819055506000634042994660e01b60008087600001513089604001518760018c6080015160000151604051602401610dd5989796959493929190612690565b604051602081830303815290604052907bffffffffffffffffffffffffffffffffffffffffffffffffffffffff19166020820180517bffffffffffffffffffffffffffffffffffffffffffffffffffffffff83818316178352505050509050610e408683868461136a565b925050509392505050565b610e53611ad4565b610e6385608001516101006114ff565b508385600001818152505082856020019073ffffffffffffffffffffffffffffffffffffffff16908173ffffffffffffffffffffffffffffffffffffffff16815250508185604001907bffffffffffffffffffffffffffffffffffffffffffffffffffffffff191690817bffffffffffffffffffffffffffffffffffffffffffffffffffffffff191681525050849050949350505050565b60606000821415610f43576040518060400160405280600181526020017f30000000000000000000000000000000000000000000000000000000000000008152509050611057565b600082905060005b60008214610f75578080610f5e9061234e565b915050600a82610f6e9190612744565b9150610f4b565b60008167ffffffffffffffff811115610f9157610f90611f38565b5b6040519080825280601f01601f191660200182016040528015610fc35781602001600182028036833780820191505090505b5090505b6000851461105057600182610fdc9190612775565b9150600a85610feb91906127a9565b6030610ff791906125aa565b60f81b81838151811061100d5761100c6127da565b5b60200101907effffffffffffffffffffffffffffffffffffffffffffffffffffffffffffff1916908160001a905350600a856110499190612744565b9450610fc7565b8093505050505b919050565b60606000600283600261106f9190612809565b61107991906125aa565b67ffffffffffffffff81111561109257611091611f38565b5b6040519080825280601f01601f1916602001820160405280156110c45781602001600182028036833780820191505090505b5090507f3000000000000000000000000000000000000000000000000000000000000000816000815181106110fc576110fb6127da565b5b60200101907effffffffffffffffffffffffffffffffffffffffffffffffffffffffffffff1916908160001a9053507f7800000000000000000000000000000000000000000000000000000000000000816001815181106111605761115f6127da565b5b60200101907effffffffffffffffffffffffffffffffffffffffffffffffffffffffffffff1916908160001a905350600060018460026111a09190612809565b6111aa91906125aa565b90505b600181111561124a577f3031323334353637383961626364656600000000000000000000000000000000600f8616601081106111ec576111eb6127da565b5b1a60f81b828281518110611203576112026127da565b5b60200101907effffffffffffffffffffffffffffffffffffffffffffffffffffffffffffff1916908160001a905350600485901c94508061124390612863565b90506111ad565b506000841461128e576040517f08c379a0000000000000000000000000000000000000000000000000000000008152600401611285906128d9565b60405180910390fd5b8091505092915050565b6112a58260038351611569565b6112b881836116ee90919063ffffffff16565b505050565b7fffffffffffffffffffffffffffffffffffffffffffffffff00000000000000008112156112f4576112ef8282611710565b611366565b67ffffffffffffffff8113156113135761130e8282611787565b611365565b6000811261132c5761132782600083611569565b611364565b611363826001837fffffffffffffffffffffffffffffffffffffffffffffffffffffffffffffffff61135e9190612903565b611569565b5b5b5b5050565b6000308460405160200161137f929190612a50565b604051602081830303815290604052805190602001209050846005600083815260200190815260200160002060006101000a81548173ffffffffffffffffffffffffffffffffffffffff021916908373ffffffffffffffffffffffffffffffffffffffff160217905550807fb5e6e01e79f91267dc17b4e6314d5d4d03593d2ceee0fbb452b750bd70ea5af960405160405180910390a2600260009054906101000a900473ffffffffffffffffffffffffffffffffffffffff1673ffffffffffffffffffffffffffffffffffffffff16634000aea08685856040518463ffffffff1660e01b815260040161147593929190612a7c565b6020604051808303816000875af1158015611494573d6000803e3d6000fd5b505050506040513d601f19601f820116820180604052508101906114b89190612291565b6114f7576040517f08c379a00000000000000000000000000000000000000000000000000000000081526004016114ee90612b2c565b60405180910390fd5b949350505050565b611507611b41565b600060208361151691906127a9565b146115425760208261152891906127a9565b60206115349190612775565b8261153f91906125aa565b91505b81836020018181525050604051808452600081528281016020016040525082905092915050565b60178167ffffffffffffffff16116115a05761159a8160058460ff16901b60ff1617846117d390919063ffffffff16565b506116e9565b60ff8167ffffffffffffffff16116115f6576115cf601860058460ff16901b17846117d390919063ffffffff16565b506115f08167ffffffffffffffff166001856117f39092919063ffffffff16565b506116e8565b61ffff8167ffffffffffffffff161161164d57611626601960058460ff16901b17846117d390919063ffffffff16565b506116478167ffffffffffffffff166002856117f39092919063ffffffff16565b506116e7565b63ffffffff8167ffffffffffffffff16116116a65761167f601a60058460ff16901b17846117d390919063ffffffff16565b506116a08167ffffffffffffffff166004856117f39092919063ffffffff16565b506116e6565b6116c3601b60058460ff16901b17846117d390919063ffffffff16565b506116e48167ffffffffffffffff166008856117f39092919063ffffffff16565b505b5b5b5b505050565b6116f6611b41565b61170883846000015151848551611815565b905092915050565b61172e60036005600660ff16901b17836117d390919063ffffffff16565b5061178382827fffffffffffffffffffffffffffffffffffffffffffffffffffffffffffffffff61175f9190612903565b60405160200161176f9190611e2e565b604051602081830303815290604052611904565b5050565b6117a560026005600660ff16901b17836117d390919063ffffffff16565b506117cf82826040516020016117bb9190611e2e565b604051602081830303815290604052611904565b5050565b6117db611b41565b6117eb8384600001515184611929565b905092915050565b6117fb611b41565b61180c848560000151518585611980565b90509392505050565b61181d611b41565b825182111561182b57600080fd5b8460200151828561183c91906125aa565b1115611871576118708560026118618860200151888761185c91906125aa565b611a0e565b61186b9190612809565b611a2a565b5b6000808651805187602083010193508088870111156118905787860182525b60208701925050505b602084106118d757805182526020826118b291906125aa565b91506020816118c191906125aa565b90506020846118d09190612775565b9350611899565b60006001856020036101000a03905080198251168184511681811785525050508692505050949350505050565b6119118260028351611569565b61192481836116ee90919063ffffffff16565b505050565b611931611b41565b836020015183106119575761195684600286602001516119519190612809565b611a2a565b5b8351805160208583010184815381861415611973576001820183525b5050508390509392505050565b611988611b41565b8460200151848361199991906125aa565b11156119c1576119c085600286856119b191906125aa565b6119bb9190612809565b611a2a565b5b60006001836101006119d39190612c7f565b6119dd9190612775565b90508551838682010185831982511617815281518588011115611a005784870182525b505085915050949350505050565b600081831115611a2057829050611a24565b8190505b92915050565b600082600001519050611a3d83836114ff565b50611a4883826116ee565b50505050565b828054611a5a906122ed565b90600052602060002090601f016020900481019282611a7c5760008555611ac3565b82601f10611a9557805160ff1916838001178555611ac3565b82800160010185558215611ac3579182015b82811115611ac2578251825591602001919060010190611aa7565b5b509050611ad09190611b5b565b5090565b6040518060a0016040528060008019168152602001600073ffffffffffffffffffffffffffffffffffffffff16815260200160007bffffffffffffffffffffffffffffffffffffffffffffffffffffffff1916815260200160008152602001611b3b611b41565b81525090565b604051806040016040528060608152602001600081525090565b5b80821115611b74576000816000905550600101611b5c565b5090565b6000604051905090565b600080fd5b600080fd5b600073ffffffffffffffffffffffffffffffffffffffff82169050919050565b6000611bb782611b8c565b9050919050565b611bc781611bac565b8114611bd257600080fd5b50565b600081359050611be481611bbe565b92915050565b6000819050919050565b611bfd81611bea565b8114611c0857600080fd5b50565b600081359050611c1a81611bf4565b92915050565b60008060408385031215611c3757611c36611b82565b5b6000611c4585828601611bd5565b9250506020611c5685828601611c0b565b9150509250929050565b611c6981611bea565b82525050565b6000604082019050611c846000830185611c60565b611c916020830184611c60565b9392505050565b60008115159050919050565b611cad81611c98565b82525050565b6000602082019050611cc86000830184611ca4565b92915050565b60008060408385031215611ce557611ce4611b82565b5b6000611cf385828601611c0b565b9250506020611d0485828601611c0b565b9150509250929050565b6000819050919050565b611d2181611d0e565b82525050565b6000602082019050611d3c6000830184611d18565b92915050565b611d4b81611d0e565b8114611d5657600080fd5b50565b600081359050611d6881611d42565b92915050565b600080600060608486031215611d8757611d86611b82565b5b6000611d9586828701611bd5565b9350506020611da686828701611d59565b9250506040611db786828701611c0b565b9150509250925092565b60008060408385031215611dd857611dd7611b82565b5b6000611de685828601611d59565b9250506020611df785828601611c0b565b9150509250929050565b600060208284031215611e1757611e16611b82565b5b6000611e2584828501611bd5565b91505092915050565b6000602082019050611e436000830184611c60565b92915050565b600081519050919050565b600082825260208201905092915050565b60005b83811015611e83578082015181840152602081019050611e68565b83811115611e92576000848401525b50505050565b6000601f19601f8301169050919050565b6000611eb482611e49565b611ebe8185611e54565b9350611ece818560208601611e65565b611ed781611e98565b840191505092915050565b60006020820190508181036000830152611efc8184611ea9565b905092915050565b611f0d81611bac565b82525050565b6000602082019050611f286000830184611f04565b92915050565b600080fd5b600080fd5b7f4e487b7100000000000000000000000000000000000000000000000000000000600052604160045260246000fd5b611f7082611e98565b810181811067ffffffffffffffff82111715611f8f57611f8e611f38565b5b80604052505050565b6000611fa2611b78565b9050611fae8282611f67565b919050565b600067ffffffffffffffff821115611fce57611fcd611f38565b5b611fd782611e98565b9050602081019050919050565b82818337600083830152505050565b600061200661200184611fb3565b611f98565b90508281526020810184848401111561202257612021611f33565b5b61202d848285611fe4565b509392505050565b600082601f83011261204a57612049611f2e565b5b813561205a848260208601611ff3565b91505092915050565b60006020828403121561207957612078611b82565b5b600082013567ffffffffffffffff81111561209757612096611b87565b5b6120a384828501612035565b91505092915050565b7f427269646765204572726f723a20416c7265616479206d696e74656400000000600082015250565b60006120e2601c83611e54565b91506120ed826120ac565b602082019050919050565b60006020820190508181036000830152612111816120d5565b9050919050565b7f427269646765204572726f723a204f6e6c79206f776e65722063616e2063616c60008201527f6c20746869732066756e6374696f6e0000000000000000000000000000000000602082015250565b6000612174602f83611e54565b915061217f82612118565b604082019050919050565b600060208201905081810360008301526121a381612167565b9050919050565b7f536f75726365206d75737420626520746865206f7261636c65206f662074686560008201527f2072657175657374000000000000000000000000000000000000000000000000602082015250565b6000612206602883611e54565b9150612211826121aa565b604082019050919050565b60006020820190508181036000830152612235816121f9565b9050919050565b60006040820190506122516000830185611f04565b61225e6020830184611c60565b9392505050565b61226e81611c98565b811461227957600080fd5b50565b60008151905061228b81612265565b92915050565b6000602082840312156122a7576122a6611b82565b5b60006122b58482850161227c565b91505092915050565b7f4e487b7100000000000000000000000000000000000000000000000000000000600052602260045260246000fd5b6000600282049050600182168061230557607f821691505b60208210811415612319576123186122be565b5b50919050565b7f4e487b7100000000000000000000000000000000000000000000000000000000600052601160045260246000fd5b600061235982611bea565b91507fffffffffffffffffffffffffffffffffffffffffffffffffffffffffffffffff82141561238c5761238b61231f565b5b600182019050919050565b600081905092915050565b60008190508160005260206000209050919050565b600081546123c4816122ed565b6123ce8186612397565b945060018216600081146123e957600181146123fa5761242d565b60ff1983168652818601935061242d565b612403856123a2565b60005b8381101561242557815481890152600182019150602081019050612406565b838801955050505b50505092915050565b7f3f6e6f6e63653d00000000000000000000000000000000000000000000000000600082015250565b600061246c600783612397565b915061247782612436565b600782019050919050565b600061248d82611e49565b6124978185612397565b93506124a7818560208601611e65565b80840191505092915050565b7f26616464726573733d0000000000000000000000000000000000000000000000600082015250565b60006124e9600983612397565b91506124f4826124b3565b600982019050919050565b7f2666726f6d436861696e49643d00000000000000000000000000000000000000600082015250565b6000612535600d83612397565b9150612540826124ff565b600d82019050919050565b600061255782876123b7565b91506125628261245f565b915061256e8286612482565b9150612579826124dc565b91506125858285612482565b915061259082612528565b915061259c8284612482565b915081905095945050505050565b60006125b582611bea565b91506125c083611bea565b9250827fffffffffffffffffffffffffffffffffffffffffffffffffffffffffffffffff038211156125f5576125f461231f565b5b828201905092915050565b60007fffffffff0000000000000000000000000000000000000000000000000000000082169050919050565b61263581612600565b82525050565b600081519050919050565b600082825260208201905092915050565b60006126628261263b565b61266c8185612646565b935061267c818560208601611e65565b61268581611e98565b840191505092915050565b6000610100820190506126a6600083018b611f04565b6126b3602083018a611c60565b6126c06040830189611d18565b6126cd6060830188611f04565b6126da608083018761262c565b6126e760a0830186611c60565b6126f460c0830185611c60565b81810360e08301526127068184612657565b90509998505050505050505050565b7f4e487b7100000000000000000000000000000000000000000000000000000000600052601260045260246000fd5b600061274f82611bea565b915061275a83611bea565b92508261276a57612769612715565b5b828204905092915050565b600061278082611bea565b915061278b83611bea565b92508282101561279e5761279d61231f565b5b828203905092915050565b60006127b482611bea565b91506127bf83611bea565b9250826127cf576127ce612715565b5b828206905092915050565b7f4e487b7100000000000000000000000000000000000000000000000000000000600052603260045260246000fd5b600061281482611bea565b915061281f83611bea565b9250817fffffffffffffffffffffffffffffffffffffffffffffffffffffffffffffffff04831182151516156128585761285761231f565b5b828202905092915050565b600061286e82611bea565b915060008214156128825761288161231f565b5b600182039050919050565b7f537472696e67733a20686578206c656e67746820696e73756666696369656e74600082015250565b60006128c3602083611e54565b91506128ce8261288d565b602082019050919050565b600060208201905081810360008301526128f2816128b6565b9050919050565b6000819050919050565b600061290e826128f9565b9150612919836128f9565b9250827f8000000000000000000000000000000000000000000000000000000000000000018212600084121516156129545761295361231f565b5b827f7fffffffffffffffffffffffffffffffffffffffffffffffffffffffffffffff01821360008412161561298c5761298b61231f565b5b828203905092915050565b6000819050919050565b60006129bc6129b76129b284611b8c565b612997565b611b8c565b9050919050565b60006129ce826129a1565b9050919050565b60006129e0826129c3565b9050919050565b60008160601b9050919050565b60006129ff826129e7565b9050919050565b6000612a11826129f4565b9050919050565b612a29612a24826129d5565b612a06565b82525050565b6000819050919050565b612a4a612a4582611bea565b612a2f565b82525050565b6000612a5c8285612a18565b601482019150612a6c8284612a39565b6020820191508190509392505050565b6000606082019050612a916000830186611f04565b612a9e6020830185611c60565b8181036040830152612ab08184612657565b9050949350505050565b7f756e61626c6520746f207472616e73666572416e6443616c6c20746f206f726160008201527f636c650000000000000000000000000000000000000000000000000000000000602082015250565b6000612b16602383611e54565b9150612b2182612aba565b604082019050919050565b60006020820190508181036000830152612b4581612b09565b9050919050565b60008160011c9050919050565b6000808291508390505b6001851115612ba357808604811115612b7f57612b7e61231f565b5b6001851615612b8e5780820291505b8081029050612b9c85612b4c565b9450612b63565b94509492505050565b600082612bbc5760019050612c78565b81612bca5760009050612c78565b8160018114612be05760028114612bea57612c19565b6001915050612c78565b60ff841115612bfc57612bfb61231f565b5b8360020a915084821115612c1357612c1261231f565b5b50612c78565b5060208310610133831016604e8410600b8410161715612c4e5782820a905083811115612c4957612c4861231f565b5b612c78565b612c5b8484846001612b59565b92509050818404811115612c7257612c7161231f565b5b81810290505b9392505050565b6000612c8a82611bea565b9150612c9583611bea565b9250612cc27fffffffffffffffffffffffffffffffffffffffffffffffffffffffffffffffff8484612bac565b90509291505056fea26469706673582212206a6ec819eef362bfd3c590d403ab78788719aeac3a49eaf8e0bd18d0a602b6f064736f6c634300080b0033",
  "immutableReferences": {},
  "source": "// SPDX-License-Identifier: MIT\r\n\r\npragma solidity ^0.8.0;\r\n\r\nimport \"@chainlink/contracts/src/v0.8/ChainlinkClient.sol\";\r\nimport \"@openzeppelin/contracts/utils/Strings.sol\";\r\n\r\nimport \"./HornBill.sol\";\r\n\r\ncontract Bridge is ChainlinkClient {\r\n    using Chainlink for Chainlink.Request;\r\n\r\n    address public tokenAddress; // address of the token contract\r\n    address public owner;\r\n\r\n    // used when request is fulfilled\r\n    struct JobData {\r\n        address sender;\r\n        uint256 nonce;\r\n    }\r\n\r\n    // to remember the which chain user wants to mint [amount] token after burning\r\n    struct BurnedTokenData {\r\n        uint256 toChainId;\r\n        uint256 amount;\r\n    }\r\n\r\n    //      from                 nonce    true/false\r\n    mapping(address => mapping(uint256 => bool)) public mintedTokens;\r\n    //      from                 nonce    amount\r\n    mapping(address => mapping(uint256 => BurnedTokenData)) public burnedTokens;\r\n    mapping(bytes32 => JobData) internal reqIdToJobData;\r\n    mapping(address => uint256) public nonces;\r\n\r\n    string public apiUrl;\r\n\r\n    address private oracle;\r\n    bytes32 private jobId;\r\n    uint256 private fee;\r\n\r\n    constructor(\r\n        address _tokenAddress,\r\n        address _owner,\r\n        string memory _apiUrl,\r\n        address _oracle,\r\n        bytes32 _jobId,\r\n        uint256 _fee,\r\n        address _linkTokenAddress\r\n    ) {\r\n        tokenAddress = _tokenAddress;\r\n        owner = _owner;\r\n        apiUrl = _apiUrl;\r\n\r\n        setChainlinkToken(_linkTokenAddress);\r\n        oracle = _oracle;\r\n        jobId = _jobId;\r\n        fee = _fee;\r\n    }\r\n\r\n    modifier onlyOwner() {\r\n        require(\r\n            msg.sender == owner,\r\n            \"Bridge Error: Only owner can call this function\"\r\n        );\r\n        _;\r\n    }\r\n\r\n    function setApiUrl(string memory _apiUrl) external onlyOwner {\r\n        apiUrl = _apiUrl;\r\n    }\r\n\r\n    function setOracleArgs(\r\n        address _oracle,\r\n        bytes32 _jobId,\r\n        uint256 _fee\r\n    ) external onlyOwner {\r\n        oracle = _oracle;\r\n        jobId = _jobId;\r\n        fee = _fee;\r\n    }\r\n\r\n    function buildApiUrl(uint256 nonce, uint256 fromChainId)\r\n        internal\r\n        view\r\n        returns (string memory)\r\n    {\r\n        return\r\n            string(\r\n                abi.encodePacked(\r\n                    apiUrl,\r\n                    \"?nonce=\",\r\n                    Strings.toString(nonce),\r\n                    \"&address=\",\r\n                    Strings.toHexString(uint160(msg.sender), 20),\r\n                    \"&fromChainId=\",\r\n                    Strings.toString(fromChainId)\r\n                )\r\n            );\r\n    }\r\n\r\n    // uses chainlink to call the api which will return the amount of tokens burend on other chain\r\n    function mint(uint256 nonce, uint256 fromChainId)\r\n        external\r\n        returns (bytes32)\r\n    {\r\n        require(\r\n            mintedTokens[msg.sender][nonce] == false,\r\n            \"Bridge Error: Already minted\"\r\n        );\r\n\r\n        // build the request\r\n        Chainlink.Request memory request = buildChainlinkRequest(\r\n            jobId,\r\n            address(this),\r\n            this.fulfill.selector\r\n        );\r\n\r\n        request.add(\"get\", buildApiUrl(nonce, fromChainId));\r\n        // {\r\n        //    AMOUNT: XXXXX\r\n        // }\r\n        request.add(\"path\", \"AMOUNT\");\r\n        request.addInt(\"times\", 10**18);\r\n\r\n        // send the request\r\n        bytes32 reqId = sendChainlinkRequestTo(oracle, request, fee);\r\n        // store request id\r\n        reqIdToJobData[reqId] = JobData(msg.sender, nonce);\r\n        return reqId;\r\n    }\r\n\r\n    function fulfill(bytes32 _requestId, uint256 _amount)\r\n        public\r\n        recordChainlinkFulfillment(_requestId)\r\n    {\r\n        // get the job data(i.e. sender, nonce) using request id\r\n        JobData memory jobData = reqIdToJobData[_requestId];\r\n\r\n        // set the state to minted\r\n        mintedTokens[jobData.sender][jobData.nonce] = true;\r\n\r\n        // delete the job data\r\n        delete reqIdToJobData[_requestId];\r\n\r\n        // mint\r\n        HornBill(tokenAddress).mint(jobData.sender, _amount);\r\n    }\r\n\r\n    function burn(uint256 amount, uint256 toChainId)\r\n        external\r\n        returns (uint256)\r\n    {\r\n        uint256 nonce = nonces[msg.sender];\r\n        HornBill(tokenAddress).burn(msg.sender, amount);\r\n        burnedTokens[msg.sender][nonce] = BurnedTokenData(toChainId, amount);\r\n        nonces[msg.sender]++;\r\n        return nonce;\r\n    }\r\n}\r\n",
  "sourcePath": "C:\\Users\\Spidy\\Desktop\\hornbill_token\\contracts\\Bridge.sol",
  "compiler": {
    "name": "solc",
    "version": "0.8.11+commit.d7f03943.Emscripten.clang"
  },
  "schemaVersion": "3.4.5",
  "updatedAt": "2022-05-20T11:29:48.307Z",
  "devdoc": {
    "kind": "dev",
    "methods": {},
    "version": 1
  },
  "userdoc": {
    "kind": "user",
    "methods": {},
    "version": 1
  }
}