{
  "contractName": "Bridge",
  "abi": [
    {
      "inputs": [
        {
          "internalType": "address",
          "name": "_tokenAddress",
          "type": "address"
        },
        {
          "internalType": "address",
          "name": "_owner",
          "type": "address"
        },
        {
          "internalType": "string",
          "name": "_apiUrl",
          "type": "string"
        },
        {
          "internalType": "address",
          "name": "_oracle",
          "type": "address"
        },
        {
          "internalType": "bytes32",
          "name": "_jobId",
          "type": "bytes32"
        },
        {
          "internalType": "uint256",
          "name": "_fee",
          "type": "uint256"
        },
        {
          "internalType": "address",
          "name": "_linkTokenAddress",
          "type": "address"
        }
      ],
      "stateMutability": "nonpayable",
      "type": "constructor"
    },
    {
      "anonymous": false,
      "inputs": [
        {
          "indexed": true,
          "internalType": "address",
          "name": "by",
          "type": "address"
        },
        {
          "indexed": true,
          "internalType": "uint256",
          "name": "nonce",
          "type": "uint256"
        },
        {
          "indexed": false,
          "internalType": "uint256",
          "name": "amount",
          "type": "uint256"
        }
      ],
      "name": "Burn",
      "type": "event"
    },
    {
      "anonymous": false,
      "inputs": [
        {
          "indexed": true,
          "internalType": "bytes32",
          "name": "id",
          "type": "bytes32"
        }
      ],
      "name": "ChainlinkCancelled",
      "type": "event"
    },
    {
      "anonymous": false,
      "inputs": [
        {
          "indexed": true,
          "internalType": "bytes32",
          "name": "id",
          "type": "bytes32"
        }
      ],
      "name": "ChainlinkFulfilled",
      "type": "event"
    },
    {
      "anonymous": false,
      "inputs": [
        {
          "indexed": true,
          "internalType": "bytes32",
          "name": "id",
          "type": "bytes32"
        }
      ],
      "name": "ChainlinkRequested",
      "type": "event"
    },
    {
      "anonymous": false,
      "inputs": [
        {
          "indexed": true,
          "internalType": "address",
          "name": "by",
          "type": "address"
        },
        {
          "indexed": true,
          "internalType": "uint256",
          "name": "nonce",
          "type": "uint256"
        },
        {
          "indexed": false,
          "internalType": "uint256",
          "name": "amount",
          "type": "uint256"
        }
      ],
      "name": "Mint",
      "type": "event"
    },
    {
      "inputs": [],
      "name": "apiUrl",
      "outputs": [
        {
          "internalType": "string",
          "name": "",
          "type": "string"
        }
      ],
      "stateMutability": "view",
      "type": "function",
      "constant": true
    },
    {
      "inputs": [
        {
          "internalType": "address",
          "name": "",
          "type": "address"
        },
        {
          "internalType": "uint256",
          "name": "",
          "type": "uint256"
        }
      ],
      "name": "burnedTokens",
      "outputs": [
        {
          "internalType": "uint256",
          "name": "toChainId",
          "type": "uint256"
        },
        {
          "internalType": "uint256",
          "name": "amount",
          "type": "uint256"
        }
      ],
      "stateMutability": "view",
      "type": "function",
      "constant": true
    },
    {
      "inputs": [
        {
          "internalType": "address",
          "name": "",
          "type": "address"
        },
        {
          "internalType": "uint256",
          "name": "",
          "type": "uint256"
        }
      ],
      "name": "mintedTokens",
      "outputs": [
        {
          "internalType": "bool",
          "name": "",
          "type": "bool"
        }
      ],
      "stateMutability": "view",
      "type": "function",
      "constant": true
    },
    {
      "inputs": [
        {
          "internalType": "address",
          "name": "",
          "type": "address"
        }
      ],
      "name": "nonces",
      "outputs": [
        {
          "internalType": "uint256",
          "name": "",
          "type": "uint256"
        }
      ],
      "stateMutability": "view",
      "type": "function",
      "constant": true
    },
    {
      "inputs": [],
      "name": "owner",
      "outputs": [
        {
          "internalType": "address",
          "name": "",
          "type": "address"
        }
      ],
      "stateMutability": "view",
      "type": "function",
      "constant": true
    },
    {
      "inputs": [],
      "name": "tokenAddress",
      "outputs": [
        {
          "internalType": "address",
          "name": "",
          "type": "address"
        }
      ],
      "stateMutability": "view",
      "type": "function",
      "constant": true
    },
    {
      "inputs": [
        {
          "internalType": "string",
          "name": "_apiUrl",
          "type": "string"
        }
      ],
      "name": "setApiUrl",
      "outputs": [],
      "stateMutability": "nonpayable",
      "type": "function"
    },
    {
      "inputs": [
        {
          "internalType": "address",
          "name": "_oracle",
          "type": "address"
        },
        {
          "internalType": "bytes32",
          "name": "_jobId",
          "type": "bytes32"
        },
        {
          "internalType": "uint256",
          "name": "_fee",
          "type": "uint256"
        }
      ],
      "name": "setOracleArgs",
      "outputs": [],
      "stateMutability": "nonpayable",
      "type": "function"
    },
    {
      "inputs": [
        {
          "internalType": "uint256",
          "name": "nonce",
          "type": "uint256"
        },
        {
          "internalType": "uint256",
          "name": "fromChainId",
          "type": "uint256"
        }
      ],
      "name": "mint",
      "outputs": [
        {
          "internalType": "bytes32",
          "name": "",
          "type": "bytes32"
        }
      ],
      "stateMutability": "nonpayable",
      "type": "function"
    },
    {
      "inputs": [
        {
          "internalType": "bytes32",
          "name": "_requestId",
          "type": "bytes32"
        },
        {
          "internalType": "uint256",
          "name": "_amount",
          "type": "uint256"
        }
      ],
      "name": "fulfill",
      "outputs": [],
      "stateMutability": "nonpayable",
      "type": "function"
    },
    {
      "inputs": [
        {
          "internalType": "uint256",
          "name": "amount",
          "type": "uint256"
        },
        {
          "internalType": "uint256",
          "name": "toChainId",
          "type": "uint256"
        }
      ],
      "name": "burn",
      "outputs": [
        {
          "internalType": "uint256",
          "name": "",
          "type": "uint256"
        }
      ],
      "stateMutability": "nonpayable",
      "type": "function"
    },
    {
      "inputs": [
        {
          "internalType": "address",
          "name": "from",
          "type": "address"
        }
      ],
      "name": "recenltyBurned",
      "outputs": [
        {
          "components": [
            {
              "internalType": "uint256",
              "name": "toChainId",
              "type": "uint256"
            },
            {
              "internalType": "uint256",
              "name": "amount",
              "type": "uint256"
            }
          ],
          "internalType": "struct Bridge.BurnedTokenData[]",
          "name": "",
          "type": "tuple[]"
        }
      ],
      "stateMutability": "view",
      "type": "function",
      "constant": true
    },
    {
      "inputs": [
        {
          "internalType": "uint256",
          "name": "nonce",
          "type": "uint256"
        },
        {
          "internalType": "address",
          "name": "from",
          "type": "address"
        }
      ],
      "name": "recentlyMinted",
      "outputs": [
        {
          "internalType": "bool[]",
          "name": "",
          "type": "bool[]"
        }
      ],
      "stateMutability": "view",
      "type": "function",
      "constant": true
    }
  ],
  "bytecode": "0x608060405260016004553480156200001657600080fd5b50604051620038eb380380620038eb83398181016040528101906200003c9190620004b0565b86600660006101000a81548173ffffffffffffffffffffffffffffffffffffffff021916908373ffffffffffffffffffffffffffffffffffffffff16021790555085600760006101000a81548173ffffffffffffffffffffffffffffffffffffffff021916908373ffffffffffffffffffffffffffffffffffffffff16021790555084600c9080519060200190620000d692919062000188565b50620000e8816200014460201b60201c565b83600d60006101000a81548173ffffffffffffffffffffffffffffffffffffffff021916908373ffffffffffffffffffffffffffffffffffffffff16021790555082600e8190555081600f8190555050505050505050620005e7565b80600260006101000a81548173ffffffffffffffffffffffffffffffffffffffff021916908373ffffffffffffffffffffffffffffffffffffffff16021790555050565b8280546200019690620005b1565b90600052602060002090601f016020900481019282620001ba576000855562000206565b82601f10620001d557805160ff191683800117855562000206565b8280016001018555821562000206579182015b8281111562000205578251825591602001919060010190620001e8565b5b50905062000215919062000219565b5090565b5b80821115620002345760008160009055506001016200021a565b5090565b6000604051905090565b600080fd5b600080fd5b600073ffffffffffffffffffffffffffffffffffffffff82169050919050565b600062000279826200024c565b9050919050565b6200028b816200026c565b81146200029757600080fd5b50565b600081519050620002ab8162000280565b92915050565b600080fd5b600080fd5b6000601f19601f8301169050919050565b7f4e487b7100000000000000000000000000000000000000000000000000000000600052604160045260246000fd5b6200030682620002bb565b810181811067ffffffffffffffff82111715620003285762000327620002cc565b5b80604052505050565b60006200033d62000238565b90506200034b8282620002fb565b919050565b600067ffffffffffffffff8211156200036e576200036d620002cc565b5b6200037982620002bb565b9050602081019050919050565b60005b83811015620003a657808201518184015260208101905062000389565b83811115620003b6576000848401525b50505050565b6000620003d3620003cd8462000350565b62000331565b905082815260208101848484011115620003f257620003f1620002b6565b5b620003ff84828562000386565b509392505050565b600082601f8301126200041f576200041e620002b1565b5b815162000431848260208601620003bc565b91505092915050565b6000819050919050565b6200044f816200043a565b81146200045b57600080fd5b50565b6000815190506200046f8162000444565b92915050565b6000819050919050565b6200048a8162000475565b81146200049657600080fd5b50565b600081519050620004aa816200047f565b92915050565b600080600080600080600060e0888a031215620004d257620004d162000242565b5b6000620004e28a828b016200029a565b9750506020620004f58a828b016200029a565b965050604088015167ffffffffffffffff81111562000519576200051862000247565b5b620005278a828b0162000407565b95505060606200053a8a828b016200029a565b94505060806200054d8a828b016200045e565b93505060a0620005608a828b0162000499565b92505060c0620005738a828b016200029a565b91505092959891949750929550565b7f4e487b7100000000000000000000000000000000000000000000000000000000600052602260045260246000fd5b60006002820490506001821680620005ca57607f821691505b60208210811415620005e157620005e062000582565b5b50919050565b6132f480620005f76000396000f3fe608060405234801561001057600080fd5b50600436106100cf5760003560e01c80637ecebe001161008c5780639d76ea58116100665780639d76ea5814610239578063b390c0ab14610257578063e7952ce514610287578063e8c75a30146102b7576100cf565b80637ecebe00146101cd5780638367e120146101fd5780638da5cb5b1461021b576100cf565b8063023ba7c3146100d45780630d981536146101055780631b2ef1ca14610135578063427dcc13146101655780634357855e146101815780637081ee741461019d575b600080fd5b6100ee60048036038101906100e99190611fe5565b6102d3565b6040516100fc929190612034565b60405180910390f35b61011f600480360381019061011a9190611fe5565b610304565b60405161012c9190612078565b60405180910390f35b61014f600480360381019061014a9190612093565b610333565b60405161015c91906120ec565b60405180910390f35b61017f600480360381019061017a9190612133565b6105e4565b005b61019b60048036038101906101969190612186565b6106c8565b005b6101b760048036038101906101b291906121c6565b610a03565b6040516101c491906122c4565b60405180910390f35b6101e760048036038101906101e291906122e6565b610b18565b6040516101f49190612313565b60405180910390f35b610205610b30565b60405161021291906123c7565b60405180910390f35b610223610bbe565b60405161023091906123f8565b60405180910390f35b610241610be4565b60405161024e91906123f8565b60405180910390f35b610271600480360381019061026c9190612093565b610c0a565b60405161027e9190612313565b60405180910390f35b6102a1600480360381019061029c91906122e6565b610e1a565b6040516102ae9190612500565b60405180910390f35b6102d160048036038101906102cc9190612657565b610f88565b005b6009602052816000526040600020602052806000526040600020600091509150508060000154908060010154905082565b60086020528160005260406000206020528060005260406000206000915091509054906101000a900460ff1681565b6000801515600860003373ffffffffffffffffffffffffffffffffffffffff1673ffffffffffffffffffffffffffffffffffffffff168152602001908152602001600020600085815260200190815260200160002060009054906101000a900460ff161515146103d8576040517f08c379a00000000000000000000000000000000000000000000000000000000081526004016103cf906126ec565b60405180910390fd5b60006103ee600e5430634357855e60e01b611032565b90506104436040518060400160405280600381526020017f67657400000000000000000000000000000000000000000000000000000000008152506104338686611063565b836110c49092919063ffffffff16565b6104c26040518060400160405280600481526020017f70617468000000000000000000000000000000000000000000000000000000008152506040518060400160405280600681526020017f414d4f554e540000000000000000000000000000000000000000000000000000815250836110c49092919063ffffffff16565b6105146040518060400160405280600581526020017f74696d6573000000000000000000000000000000000000000000000000000000815250670de0b6b3a7640000836110f79092919063ffffffff16565b6000610545600d60009054906101000a900473ffffffffffffffffffffffffffffffffffffffff1683600f5461112a565b905060405180604001604052803373ffffffffffffffffffffffffffffffffffffffff16815260200186815250600a600083815260200190815260200160002060008201518160000160006101000a81548173ffffffffffffffffffffffffffffffffffffffff021916908373ffffffffffffffffffffffffffffffffffffffff16021790555060208201518160010155905050809250505092915050565b600760009054906101000a900473ffffffffffffffffffffffffffffffffffffffff1673ffffffffffffffffffffffffffffffffffffffff163373ffffffffffffffffffffffffffffffffffffffff1614610674576040517f08c379a000000000000000000000000000000000000000000000000000000000815260040161066b9061277e565b60405180910390fd5b82600d60006101000a81548173ffffffffffffffffffffffffffffffffffffffff021916908373ffffffffffffffffffffffffffffffffffffffff16021790555081600e8190555080600f81905550505050565b816005600082815260200190815260200160002060009054906101000a900473ffffffffffffffffffffffffffffffffffffffff1673ffffffffffffffffffffffffffffffffffffffff163373ffffffffffffffffffffffffffffffffffffffff161461076a576040517f08c379a000000000000000000000000000000000000000000000000000000000815260040161076190612810565b60405180910390fd5b6005600082815260200190815260200160002060006101000a81549073ffffffffffffffffffffffffffffffffffffffff0219169055807f7cc135e0cebb02c3480ae5d74d377283180a2601f8f644edf7987b009316c63a60405160405180910390a26000600a60008581526020019081526020016000206040518060400160405290816000820160009054906101000a900473ffffffffffffffffffffffffffffffffffffffff1673ffffffffffffffffffffffffffffffffffffffff1673ffffffffffffffffffffffffffffffffffffffff1681526020016001820154815250509050600160086000836000015173ffffffffffffffffffffffffffffffffffffffff1673ffffffffffffffffffffffffffffffffffffffff16815260200190815260200160002060008360200151815260200190815260200160002060006101000a81548160ff021916908315150217905550600a6000858152602001908152602001600020600080820160006101000a81549073ffffffffffffffffffffffffffffffffffffffff021916905560018201600090555050600660009054906101000a900473ffffffffffffffffffffffffffffffffffffffff1673ffffffffffffffffffffffffffffffffffffffff166340c10f198260000151856040518363ffffffff1660e01b8152600401610966929190612830565b6020604051808303816000875af1158015610985573d6000803e3d6000fd5b505050506040513d601f19601f820116820180604052508101906109a99190612885565b5080602001513373ffffffffffffffffffffffffffffffffffffffff167f49995e5dd6158cf69ad3e9777c46755a1a826a446c6416992167462dad033b2a856040516109f59190612313565b60405180910390a350505050565b60606000600567ffffffffffffffff811115610a2257610a2161252c565b5b604051908082528060200260200182016040528015610a505781602001602082028036833780820191505090505b50905060005b6005811015610b0d5780851015610a6c57610b0d565b600860008573ffffffffffffffffffffffffffffffffffffffff1673ffffffffffffffffffffffffffffffffffffffff16815260200190815260200160002060008287610ab991906128e1565b815260200190815260200160002060009054906101000a900460ff16828281518110610ae857610ae7612915565b5b6020026020010190151590811515815250508080610b0590612944565b915050610a56565b508091505092915050565b600b6020528060005260406000206000915090505481565b600c8054610b3d906129bc565b80601f0160208091040260200160405190810160405280929190818152602001828054610b69906129bc565b8015610bb65780601f10610b8b57610100808354040283529160200191610bb6565b820191906000526020600020905b815481529060010190602001808311610b9957829003601f168201915b505050505081565b600760009054906101000a900473ffffffffffffffffffffffffffffffffffffffff1681565b600660009054906101000a900473ffffffffffffffffffffffffffffffffffffffff1681565b600080600b60003373ffffffffffffffffffffffffffffffffffffffff1673ffffffffffffffffffffffffffffffffffffffff168152602001908152602001600020549050600660009054906101000a900473ffffffffffffffffffffffffffffffffffffffff1673ffffffffffffffffffffffffffffffffffffffff16639dc29fac33866040518363ffffffff1660e01b8152600401610cac929190612830565b6020604051808303816000875af1158015610ccb573d6000803e3d6000fd5b505050506040513d601f19601f82011682018060405250810190610cef9190612885565b50604051806040016040528084815260200185815250600960003373ffffffffffffffffffffffffffffffffffffffff1673ffffffffffffffffffffffffffffffffffffffff16815260200190815260200160002060008381526020019081526020016000206000820151816000015560208201518160010155905050803373ffffffffffffffffffffffffffffffffffffffff167f49995e5dd6158cf69ad3e9777c46755a1a826a446c6416992167462dad033b2a86604051610db39190612313565b60405180910390a3600b60003373ffffffffffffffffffffffffffffffffffffffff1673ffffffffffffffffffffffffffffffffffffffff1681526020019081526020016000206000815480929190610e0b90612944565b91905055508091505092915050565b60606000600b60008473ffffffffffffffffffffffffffffffffffffffff1673ffffffffffffffffffffffffffffffffffffffff1681526020019081526020016000205490506000600567ffffffffffffffff811115610e7d57610e7c61252c565b5b604051908082528060200260200182016040528015610eb657816020015b610ea3611df9565b815260200190600190039081610e9b5790505b50905060005b6005811015610f7d5780831015610ed257610f7d565b600960008673ffffffffffffffffffffffffffffffffffffffff1673ffffffffffffffffffffffffffffffffffffffff16815260200190815260200160002060008285610f1f91906128e1565b815260200190815260200160002060405180604001604052908160008201548152602001600182015481525050828281518110610f5f57610f5e612915565b5b60200260200101819052508080610f7590612944565b915050610ebc565b508092505050919050565b600760009054906101000a900473ffffffffffffffffffffffffffffffffffffffff1673ffffffffffffffffffffffffffffffffffffffff163373ffffffffffffffffffffffffffffffffffffffff1614611018576040517f08c379a000000000000000000000000000000000000000000000000000000000815260040161100f9061277e565b60405180910390fd5b80600c908051906020019061102e929190611e13565b5050565b61103a611e99565b611042611e99565b611059858585846111f6909392919063ffffffff16565b9150509392505050565b6060600c611070846112a6565b6110913373ffffffffffffffffffffffffffffffffffffffff166014611407565b61109a856112a6565b6040516020016110ad9493929190612ba2565b604051602081830303815290604052905092915050565b6110db82846080015161164390919063ffffffff16565b6110f281846080015161164390919063ffffffff16565b505050565b61110e82846080015161164390919063ffffffff16565b61112581846080015161166890919063ffffffff16565b505050565b600080600454905060018161113f9190612c01565b6004819055506000634042994660e01b60008087600001513089604001518760018c6080015160000151604051602401611180989796959493929190612ce7565b604051602081830303815290604052907bffffffffffffffffffffffffffffffffffffffffffffffffffffffff19166020820180517bffffffffffffffffffffffffffffffffffffffffffffffffffffffff838183161783525050505090506111eb86838684611715565b925050509392505050565b6111fe611e99565b61120e85608001516101006118aa565b508385600001818152505082856020019073ffffffffffffffffffffffffffffffffffffffff16908173ffffffffffffffffffffffffffffffffffffffff16815250508185604001907bffffffffffffffffffffffffffffffffffffffffffffffffffffffff191690817bffffffffffffffffffffffffffffffffffffffffffffffffffffffff191681525050849050949350505050565b606060008214156112ee576040518060400160405280600181526020017f30000000000000000000000000000000000000000000000000000000000000008152509050611402565b600082905060005b6000821461132057808061130990612944565b915050600a826113199190612d9b565b91506112f6565b60008167ffffffffffffffff81111561133c5761133b61252c565b5b6040519080825280601f01601f19166020018201604052801561136e5781602001600182028036833780820191505090505b5090505b600085146113fb5760018261138791906128e1565b9150600a856113969190612dcc565b60306113a29190612c01565b60f81b8183815181106113b8576113b7612915565b5b60200101907effffffffffffffffffffffffffffffffffffffffffffffffffffffffffffff1916908160001a905350600a856113f49190612d9b565b9450611372565b8093505050505b919050565b60606000600283600261141a9190612dfd565b6114249190612c01565b67ffffffffffffffff81111561143d5761143c61252c565b5b6040519080825280601f01601f19166020018201604052801561146f5781602001600182028036833780820191505090505b5090507f3000000000000000000000000000000000000000000000000000000000000000816000815181106114a7576114a6612915565b5b60200101907effffffffffffffffffffffffffffffffffffffffffffffffffffffffffffff1916908160001a9053507f78000000000000000000000000000000000000000000000000000000000000008160018151811061150b5761150a612915565b5b60200101907effffffffffffffffffffffffffffffffffffffffffffffffffffffffffffff1916908160001a9053506000600184600261154b9190612dfd565b6115559190612c01565b90505b60018111156115f5577f3031323334353637383961626364656600000000000000000000000000000000600f86166010811061159757611596612915565b5b1a60f81b8282815181106115ae576115ad612915565b5b60200101907effffffffffffffffffffffffffffffffffffffffffffffffffffffffffffff1916908160001a905350600485901c9450806115ee90612e57565b9050611558565b5060008414611639576040517f08c379a000000000000000000000000000000000000000000000000000000000815260040161163090612ecd565b60405180910390fd5b8091505092915050565b6116508260038351611914565b6116638183611a9990919063ffffffff16565b505050565b7fffffffffffffffffffffffffffffffffffffffffffffffff000000000000000081121561169f5761169a8282611abb565b611711565b67ffffffffffffffff8113156116be576116b98282611b32565b611710565b600081126116d7576116d282600083611914565b61170f565b61170e826001837fffffffffffffffffffffffffffffffffffffffffffffffffffffffffffffffff6117099190612ef7565b611914565b5b5b5b5050565b6000308460405160200161172a929190613044565b604051602081830303815290604052805190602001209050846005600083815260200190815260200160002060006101000a81548173ffffffffffffffffffffffffffffffffffffffff021916908373ffffffffffffffffffffffffffffffffffffffff160217905550807fb5e6e01e79f91267dc17b4e6314d5d4d03593d2ceee0fbb452b750bd70ea5af960405160405180910390a2600260009054906101000a900473ffffffffffffffffffffffffffffffffffffffff1673ffffffffffffffffffffffffffffffffffffffff16634000aea08685856040518463ffffffff1660e01b815260040161182093929190613070565b6020604051808303816000875af115801561183f573d6000803e3d6000fd5b505050506040513d601f19601f820116820180604052508101906118639190612885565b6118a2576040517f08c379a000000000000000000000000000000000000000000000000000000000815260040161189990613120565b60405180910390fd5b949350505050565b6118b2611f06565b60006020836118c19190612dcc565b146118ed576020826118d39190612dcc565b60206118df91906128e1565b826118ea9190612c01565b91505b81836020018181525050604051808452600081528281016020016040525082905092915050565b60178167ffffffffffffffff161161194b576119458160058460ff16901b60ff161784611b7e90919063ffffffff16565b50611a94565b60ff8167ffffffffffffffff16116119a15761197a601860058460ff16901b1784611b7e90919063ffffffff16565b5061199b8167ffffffffffffffff16600185611b9e9092919063ffffffff16565b50611a93565b61ffff8167ffffffffffffffff16116119f8576119d1601960058460ff16901b1784611b7e90919063ffffffff16565b506119f28167ffffffffffffffff16600285611b9e9092919063ffffffff16565b50611a92565b63ffffffff8167ffffffffffffffff1611611a5157611a2a601a60058460ff16901b1784611b7e90919063ffffffff16565b50611a4b8167ffffffffffffffff16600485611b9e9092919063ffffffff16565b50611a91565b611a6e601b60058460ff16901b1784611b7e90919063ffffffff16565b50611a8f8167ffffffffffffffff16600885611b9e9092919063ffffffff16565b505b5b5b5b505050565b611aa1611f06565b611ab383846000015151848551611bc0565b905092915050565b611ad960036005600660ff16901b1783611b7e90919063ffffffff16565b50611b2e82827fffffffffffffffffffffffffffffffffffffffffffffffffffffffffffffffff611b0a9190612ef7565b604051602001611b1a9190612313565b604051602081830303815290604052611caf565b5050565b611b5060026005600660ff16901b1783611b7e90919063ffffffff16565b50611b7a8282604051602001611b669190612313565b604051602081830303815290604052611caf565b5050565b611b86611f06565b611b968384600001515184611cd4565b905092915050565b611ba6611f06565b611bb7848560000151518585611d2b565b90509392505050565b611bc8611f06565b8251821115611bd657600080fd5b84602001518285611be79190612c01565b1115611c1c57611c1b856002611c0c88602001518887611c079190612c01565b611db9565b611c169190612dfd565b611dd5565b5b600080865180518760208301019350808887011115611c3b5787860182525b60208701925050505b60208410611c825780518252602082611c5d9190612c01565b9150602081611c6c9190612c01565b9050602084611c7b91906128e1565b9350611c44565b60006001856020036101000a03905080198251168184511681811785525050508692505050949350505050565b611cbc8260028351611914565b611ccf8183611a9990919063ffffffff16565b505050565b611cdc611f06565b83602001518310611d0257611d018460028660200151611cfc9190612dfd565b611dd5565b5b8351805160208583010184815381861415611d1e576001820183525b5050508390509392505050565b611d33611f06565b84602001518483611d449190612c01565b1115611d6c57611d6b8560028685611d5c9190612c01565b611d669190612dfd565b611dd5565b5b6000600183610100611d7e9190613273565b611d8891906128e1565b90508551838682010185831982511617815281518588011115611dab5784870182525b505085915050949350505050565b600081831115611dcb57829050611dcf565b8190505b92915050565b600082600001519050611de883836118aa565b50611df38382611a99565b50505050565b604051806040016040528060008152602001600081525090565b828054611e1f906129bc565b90600052602060002090601f016020900481019282611e415760008555611e88565b82601f10611e5a57805160ff1916838001178555611e88565b82800160010185558215611e88579182015b82811115611e87578251825591602001919060010190611e6c565b5b509050611e959190611f20565b5090565b6040518060a0016040528060008019168152602001600073ffffffffffffffffffffffffffffffffffffffff16815260200160007bffffffffffffffffffffffffffffffffffffffffffffffffffffffff1916815260200160008152602001611f00611f06565b81525090565b604051806040016040528060608152602001600081525090565b5b80821115611f39576000816000905550600101611f21565b5090565b6000604051905090565b600080fd5b600080fd5b600073ffffffffffffffffffffffffffffffffffffffff82169050919050565b6000611f7c82611f51565b9050919050565b611f8c81611f71565b8114611f9757600080fd5b50565b600081359050611fa981611f83565b92915050565b6000819050919050565b611fc281611faf565b8114611fcd57600080fd5b50565b600081359050611fdf81611fb9565b92915050565b60008060408385031215611ffc57611ffb611f47565b5b600061200a85828601611f9a565b925050602061201b85828601611fd0565b9150509250929050565b61202e81611faf565b82525050565b60006040820190506120496000830185612025565b6120566020830184612025565b9392505050565b60008115159050919050565b6120728161205d565b82525050565b600060208201905061208d6000830184612069565b92915050565b600080604083850312156120aa576120a9611f47565b5b60006120b885828601611fd0565b92505060206120c985828601611fd0565b9150509250929050565b6000819050919050565b6120e6816120d3565b82525050565b600060208201905061210160008301846120dd565b92915050565b612110816120d3565b811461211b57600080fd5b50565b60008135905061212d81612107565b92915050565b60008060006060848603121561214c5761214b611f47565b5b600061215a86828701611f9a565b935050602061216b8682870161211e565b925050604061217c86828701611fd0565b9150509250925092565b6000806040838503121561219d5761219c611f47565b5b60006121ab8582860161211e565b92505060206121bc85828601611fd0565b9150509250929050565b600080604083850312156121dd576121dc611f47565b5b60006121eb85828601611fd0565b92505060206121fc85828601611f9a565b9150509250929050565b600081519050919050565b600082825260208201905092915050565b6000819050602082019050919050565b61223b8161205d565b82525050565b600061224d8383612232565b60208301905092915050565b6000602082019050919050565b600061227182612206565b61227b8185612211565b935061228683612222565b8060005b838110156122b757815161229e8882612241565b97506122a983612259565b92505060018101905061228a565b5085935050505092915050565b600060208201905081810360008301526122de8184612266565b905092915050565b6000602082840312156122fc576122fb611f47565b5b600061230a84828501611f9a565b91505092915050565b60006020820190506123286000830184612025565b92915050565b600081519050919050565b600082825260208201905092915050565b60005b8381101561236857808201518184015260208101905061234d565b83811115612377576000848401525b50505050565b6000601f19601f8301169050919050565b60006123998261232e565b6123a38185612339565b93506123b381856020860161234a565b6123bc8161237d565b840191505092915050565b600060208201905081810360008301526123e1818461238e565b905092915050565b6123f281611f71565b82525050565b600060208201905061240d60008301846123e9565b92915050565b600081519050919050565b600082825260208201905092915050565b6000819050602082019050919050565b61244881611faf565b82525050565b604082016000820151612464600085018261243f565b506020820151612477602085018261243f565b50505050565b6000612489838361244e565b60408301905092915050565b6000602082019050919050565b60006124ad82612413565b6124b7818561241e565b93506124c28361242f565b8060005b838110156124f35781516124da888261247d565b97506124e583612495565b9250506001810190506124c6565b5085935050505092915050565b6000602082019050818103600083015261251a81846124a2565b905092915050565b600080fd5b600080fd5b7f4e487b7100000000000000000000000000000000000000000000000000000000600052604160045260246000fd5b6125648261237d565b810181811067ffffffffffffffff821117156125835761258261252c565b5b80604052505050565b6000612596611f3d565b90506125a2828261255b565b919050565b600067ffffffffffffffff8211156125c2576125c161252c565b5b6125cb8261237d565b9050602081019050919050565b82818337600083830152505050565b60006125fa6125f5846125a7565b61258c565b90508281526020810184848401111561261657612615612527565b5b6126218482856125d8565b509392505050565b600082601f83011261263e5761263d612522565b5b813561264e8482602086016125e7565b91505092915050565b60006020828403121561266d5761266c611f47565b5b600082013567ffffffffffffffff81111561268b5761268a611f4c565b5b61269784828501612629565b91505092915050565b7f427269646765204572726f723a20416c7265616479206d696e74656400000000600082015250565b60006126d6601c83612339565b91506126e1826126a0565b602082019050919050565b60006020820190508181036000830152612705816126c9565b9050919050565b7f427269646765204572726f723a204f6e6c79206f776e65722063616e2063616c60008201527f6c20746869732066756e6374696f6e0000000000000000000000000000000000602082015250565b6000612768602f83612339565b91506127738261270c565b604082019050919050565b600060208201905081810360008301526127978161275b565b9050919050565b7f536f75726365206d75737420626520746865206f7261636c65206f662074686560008201527f2072657175657374000000000000000000000000000000000000000000000000602082015250565b60006127fa602883612339565b91506128058261279e565b604082019050919050565b60006020820190508181036000830152612829816127ed565b9050919050565b600060408201905061284560008301856123e9565b6128526020830184612025565b9392505050565b6128628161205d565b811461286d57600080fd5b50565b60008151905061287f81612859565b92915050565b60006020828403121561289b5761289a611f47565b5b60006128a984828501612870565b91505092915050565b7f4e487b7100000000000000000000000000000000000000000000000000000000600052601160045260246000fd5b60006128ec82611faf565b91506128f783611faf565b92508282101561290a576129096128b2565b5b828203905092915050565b7f4e487b7100000000000000000000000000000000000000000000000000000000600052603260045260246000fd5b600061294f82611faf565b91507fffffffffffffffffffffffffffffffffffffffffffffffffffffffffffffffff821415612982576129816128b2565b5b600182019050919050565b7f4e487b7100000000000000000000000000000000000000000000000000000000600052602260045260246000fd5b600060028204905060018216806129d457607f821691505b602082108114156129e8576129e761298d565b5b50919050565b600081905092915050565b60008190508160005260206000209050919050565b60008154612a1b816129bc565b612a2581866129ee565b94506001821660008114612a405760018114612a5157612a84565b60ff19831686528186019350612a84565b612a5a856129f9565b60005b83811015612a7c57815481890152600182019150602081019050612a5d565b838801955050505b50505092915050565b7f3f6e6f6e63653d00000000000000000000000000000000000000000000000000600082015250565b6000612ac36007836129ee565b9150612ace82612a8d565b600782019050919050565b6000612ae48261232e565b612aee81856129ee565b9350612afe81856020860161234a565b80840191505092915050565b7f26616464726573733d0000000000000000000000000000000000000000000000600082015250565b6000612b406009836129ee565b9150612b4b82612b0a565b600982019050919050565b7f2666726f6d436861696e49643d00000000000000000000000000000000000000600082015250565b6000612b8c600d836129ee565b9150612b9782612b56565b600d82019050919050565b6000612bae8287612a0e565b9150612bb982612ab6565b9150612bc58286612ad9565b9150612bd082612b33565b9150612bdc8285612ad9565b9150612be782612b7f565b9150612bf38284612ad9565b915081905095945050505050565b6000612c0c82611faf565b9150612c1783611faf565b9250827fffffffffffffffffffffffffffffffffffffffffffffffffffffffffffffffff03821115612c4c57612c4b6128b2565b5b828201905092915050565b60007fffffffff0000000000000000000000000000000000000000000000000000000082169050919050565b612c8c81612c57565b82525050565b600081519050919050565b600082825260208201905092915050565b6000612cb982612c92565b612cc38185612c9d565b9350612cd381856020860161234a565b612cdc8161237d565b840191505092915050565b600061010082019050612cfd600083018b6123e9565b612d0a602083018a612025565b612d1760408301896120dd565b612d2460608301886123e9565b612d316080830187612c83565b612d3e60a0830186612025565b612d4b60c0830185612025565b81810360e0830152612d5d8184612cae565b90509998505050505050505050565b7f4e487b7100000000000000000000000000000000000000000000000000000000600052601260045260246000fd5b6000612da682611faf565b9150612db183611faf565b925082612dc157612dc0612d6c565b5b828204905092915050565b6000612dd782611faf565b9150612de283611faf565b925082612df257612df1612d6c565b5b828206905092915050565b6000612e0882611faf565b9150612e1383611faf565b9250817fffffffffffffffffffffffffffffffffffffffffffffffffffffffffffffffff0483118215151615612e4c57612e4b6128b2565b5b828202905092915050565b6000612e6282611faf565b91506000821415612e7657612e756128b2565b5b600182039050919050565b7f537472696e67733a20686578206c656e67746820696e73756666696369656e74600082015250565b6000612eb7602083612339565b9150612ec282612e81565b602082019050919050565b60006020820190508181036000830152612ee681612eaa565b9050919050565b6000819050919050565b6000612f0282612eed565b9150612f0d83612eed565b9250827f800000000000000000000000000000000000000000000000000000000000000001821260008412151615612f4857612f476128b2565b5b827f7fffffffffffffffffffffffffffffffffffffffffffffffffffffffffffffff018213600084121615612f8057612f7f6128b2565b5b828203905092915050565b6000819050919050565b6000612fb0612fab612fa684611f51565b612f8b565b611f51565b9050919050565b6000612fc282612f95565b9050919050565b6000612fd482612fb7565b9050919050565b60008160601b9050919050565b6000612ff382612fdb565b9050919050565b600061300582612fe8565b9050919050565b61301d61301882612fc9565b612ffa565b82525050565b6000819050919050565b61303e61303982611faf565b613023565b82525050565b6000613050828561300c565b601482019150613060828461302d565b6020820191508190509392505050565b600060608201905061308560008301866123e9565b6130926020830185612025565b81810360408301526130a48184612cae565b9050949350505050565b7f756e61626c6520746f207472616e73666572416e6443616c6c20746f206f726160008201527f636c650000000000000000000000000000000000000000000000000000000000602082015250565b600061310a602383612339565b9150613115826130ae565b604082019050919050565b60006020820190508181036000830152613139816130fd565b9050919050565b60008160011c9050919050565b6000808291508390505b600185111561319757808604811115613173576131726128b2565b5b60018516156131825780820291505b808102905061319085613140565b9450613157565b94509492505050565b6000826131b0576001905061326c565b816131be576000905061326c565b81600181146131d457600281146131de5761320d565b600191505061326c565b60ff8411156131f0576131ef6128b2565b5b8360020a915084821115613207576132066128b2565b5b5061326c565b5060208310610133831016604e8410600b84101617156132425782820a90508381111561323d5761323c6128b2565b5b61326c565b61324f848484600161314d565b92509050818404811115613266576132656128b2565b5b81810290505b9392505050565b600061327e82611faf565b915061328983611faf565b92506132b67fffffffffffffffffffffffffffffffffffffffffffffffffffffffffffffffff84846131a0565b90509291505056fea2646970667358221220c4e8314f6c810367a17cd5080cf6988d30856f7bc4af32819aed1033404ae32e64736f6c634300080b0033",
  "immutableReferences": {},
  "source": "// SPDX-License-Identifier: MIT\r\n\r\npragma solidity ^0.8.0;\r\n\r\nimport \"@chainlink/contracts/src/v0.8/ChainlinkClient.sol\";\r\nimport \"@openzeppelin/contracts/utils/Strings.sol\";\r\n\r\nimport \"./HornBill.sol\";\r\n\r\ncontract Bridge is ChainlinkClient {\r\n    using Chainlink for Chainlink.Request;\r\n\r\n    address public tokenAddress; // address of the token contract\r\n    address public owner;\r\n\r\n    // used when request is fulfilled\r\n    struct JobData {\r\n        address sender;\r\n        uint256 nonce;\r\n    }\r\n\r\n    // to remember the which chain user wants to mint [amount] token after burning\r\n    struct BurnedTokenData {\r\n        uint256 toChainId;\r\n        uint256 amount;\r\n    }\r\n\r\n    //      from                 nonce    true/false\r\n    mapping(address => mapping(uint256 => bool)) public mintedTokens;\r\n    //      from                 nonce    amount\r\n    mapping(address => mapping(uint256 => BurnedTokenData)) public burnedTokens;\r\n    mapping(bytes32 => JobData) internal reqIdToJobData;\r\n    mapping(address => uint256) public nonces;\r\n\r\n    string public apiUrl;\r\n\r\n    address private oracle;\r\n    bytes32 private jobId;\r\n    uint256 private fee;\r\n\r\n    constructor(\r\n        address _tokenAddress,\r\n        address _owner,\r\n        string memory _apiUrl,\r\n        address _oracle,\r\n        bytes32 _jobId,\r\n        uint256 _fee,\r\n        address _linkTokenAddress\r\n    ) {\r\n        tokenAddress = _tokenAddress;\r\n        owner = _owner;\r\n        apiUrl = _apiUrl;\r\n\r\n        setChainlinkToken(_linkTokenAddress);\r\n        oracle = _oracle;\r\n        jobId = _jobId;\r\n        fee = _fee;\r\n    }\r\n\r\n    event Burn(address indexed by, uint256 indexed nonce, uint256 amount);\r\n    event Mint(address indexed by, uint256 indexed nonce, uint256 amount);\r\n\r\n    modifier onlyOwner() {\r\n        require(\r\n            msg.sender == owner,\r\n            \"Bridge Error: Only owner can call this function\"\r\n        );\r\n        _;\r\n    }\r\n\r\n    function setApiUrl(string memory _apiUrl) external onlyOwner {\r\n        apiUrl = _apiUrl;\r\n    }\r\n\r\n    function setOracleArgs(\r\n        address _oracle,\r\n        bytes32 _jobId,\r\n        uint256 _fee\r\n    ) external onlyOwner {\r\n        oracle = _oracle;\r\n        jobId = _jobId;\r\n        fee = _fee;\r\n    }\r\n\r\n    function buildApiUrl(uint256 nonce, uint256 fromChainId)\r\n        internal\r\n        view\r\n        returns (string memory)\r\n    {\r\n        return\r\n            string(\r\n                abi.encodePacked(\r\n                    apiUrl,\r\n                    \"?nonce=\",\r\n                    Strings.toString(nonce),\r\n                    \"&address=\",\r\n                    Strings.toHexString(uint160(msg.sender), 20),\r\n                    \"&fromChainId=\",\r\n                    Strings.toString(fromChainId)\r\n                )\r\n            );\r\n    }\r\n\r\n    // uses chainlink to call the api which will return the amount of tokens burend on other chain\r\n    function mint(uint256 nonce, uint256 fromChainId)\r\n        external\r\n        returns (bytes32)\r\n    {\r\n        require(\r\n            mintedTokens[msg.sender][nonce] == false,\r\n            \"Bridge Error: Already minted\"\r\n        );\r\n\r\n        // build the request\r\n        Chainlink.Request memory request = buildChainlinkRequest(\r\n            jobId,\r\n            address(this),\r\n            this.fulfill.selector\r\n        );\r\n\r\n        request.add(\"get\", buildApiUrl(nonce, fromChainId));\r\n        // {\r\n        //    AMOUNT: XXXXX\r\n        // }\r\n        request.add(\"path\", \"AMOUNT\");\r\n        request.addInt(\"times\", 10**18);\r\n\r\n        // send the request\r\n        bytes32 reqId = sendChainlinkRequestTo(oracle, request, fee);\r\n        // store request id\r\n        reqIdToJobData[reqId] = JobData(msg.sender, nonce);\r\n        return reqId;\r\n    }\r\n\r\n    function fulfill(bytes32 _requestId, uint256 _amount)\r\n        public\r\n        recordChainlinkFulfillment(_requestId)\r\n    {\r\n        // get the job data(i.e. sender, nonce) using request id\r\n        JobData memory jobData = reqIdToJobData[_requestId];\r\n\r\n        // set the state to minted\r\n        mintedTokens[jobData.sender][jobData.nonce] = true;\r\n\r\n        // delete the job data\r\n        delete reqIdToJobData[_requestId];\r\n\r\n        // mint\r\n        HornBill(tokenAddress).mint(jobData.sender, _amount);\r\n\r\n        // event\r\n        emit Burn(msg.sender, jobData.nonce, _amount);\r\n    }\r\n\r\n    function burn(uint256 amount, uint256 toChainId)\r\n        external\r\n        returns (uint256)\r\n    {\r\n        uint256 nonce = nonces[msg.sender];\r\n        HornBill(tokenAddress).burn(msg.sender, amount);\r\n        burnedTokens[msg.sender][nonce] = BurnedTokenData(toChainId, amount);\r\n        emit Burn(msg.sender, nonce, amount);\r\n        nonces[msg.sender]++;\r\n        return nonce;\r\n    }\r\n\r\n    function recenltyBurned(address from)\r\n        public\r\n        view\r\n        returns (BurnedTokenData[] memory)\r\n    {\r\n        uint256 nonce = nonces[from];\r\n        BurnedTokenData[] memory last5Burned = new BurnedTokenData[](5);\r\n\r\n        for (uint256 i = 0; i < 5; i++) {\r\n            if (nonce < i) {\r\n                break;\r\n            }\r\n            last5Burned[i] = burnedTokens[from][nonce - i];\r\n        }\r\n\r\n        return last5Burned;\r\n    }\r\n\r\n    function recentlyMinted(uint256 nonce, address from)\r\n        public\r\n        view\r\n        returns (bool[] memory)\r\n    {\r\n        bool[] memory minted = new bool[](5);\r\n        for (uint256 i = 0; i < 5; i++) {\r\n            if (nonce < i) {\r\n                break;\r\n            }\r\n            minted[i] = mintedTokens[from][nonce - i];\r\n        }\r\n\r\n        return minted;\r\n    }\r\n}\r\n",
  "sourcePath": "C:\\Users\\Spidy\\Desktop\\hornbill_token\\contracts\\Bridge.sol",
  "compiler": {
    "name": "solc",
    "version": "0.8.11+commit.d7f03943.Emscripten.clang"
  },
  "schemaVersion": "3.4.5",
  "updatedAt": "2022-05-22T07:27:44.324Z",
  "networkType": "ethereum",
  "devdoc": {
    "kind": "dev",
    "methods": {},
    "version": 1
  },
  "userdoc": {
    "kind": "user",
    "methods": {},
    "version": 1
  }
}