{
  "contractName": "HornBill",
  "abi": [
    {
      "inputs": [
        {
          "internalType": "address",
          "name": "_daiAddress",
          "type": "address"
        }
      ],
      "stateMutability": "nonpayable",
      "type": "constructor"
    },
    {
      "anonymous": false,
      "inputs": [
        {
          "indexed": true,
          "internalType": "address",
          "name": "owner",
          "type": "address"
        },
        {
          "indexed": true,
          "internalType": "address",
          "name": "spender",
          "type": "address"
        },
        {
          "indexed": false,
          "internalType": "uint256",
          "name": "value",
          "type": "uint256"
        }
      ],
      "name": "Approval",
      "type": "event"
    },
    {
      "anonymous": false,
      "inputs": [
        {
          "indexed": true,
          "internalType": "address",
          "name": "from",
          "type": "address"
        },
        {
          "indexed": true,
          "internalType": "address",
          "name": "to",
          "type": "address"
        },
        {
          "indexed": false,
          "internalType": "uint256",
          "name": "value",
          "type": "uint256"
        }
      ],
      "name": "Transfer",
      "type": "event"
    },
    {
      "inputs": [
        {
          "internalType": "address",
          "name": "owner",
          "type": "address"
        },
        {
          "internalType": "address",
          "name": "spender",
          "type": "address"
        }
      ],
      "name": "allowance",
      "outputs": [
        {
          "internalType": "uint256",
          "name": "",
          "type": "uint256"
        }
      ],
      "stateMutability": "view",
      "type": "function",
      "constant": true
    },
    {
      "inputs": [
        {
          "internalType": "address",
          "name": "spender",
          "type": "address"
        },
        {
          "internalType": "uint256",
          "name": "amount",
          "type": "uint256"
        }
      ],
      "name": "approve",
      "outputs": [
        {
          "internalType": "bool",
          "name": "",
          "type": "bool"
        }
      ],
      "stateMutability": "nonpayable",
      "type": "function"
    },
    {
      "inputs": [
        {
          "internalType": "address",
          "name": "account",
          "type": "address"
        }
      ],
      "name": "balanceOf",
      "outputs": [
        {
          "internalType": "uint256",
          "name": "",
          "type": "uint256"
        }
      ],
      "stateMutability": "view",
      "type": "function",
      "constant": true
    },
    {
      "inputs": [],
      "name": "daiAddress",
      "outputs": [
        {
          "internalType": "address",
          "name": "",
          "type": "address"
        }
      ],
      "stateMutability": "view",
      "type": "function",
      "constant": true
    },
    {
      "inputs": [],
      "name": "decimals",
      "outputs": [
        {
          "internalType": "uint8",
          "name": "",
          "type": "uint8"
        }
      ],
      "stateMutability": "view",
      "type": "function",
      "constant": true
    },
    {
      "inputs": [
        {
          "internalType": "address",
          "name": "spender",
          "type": "address"
        },
        {
          "internalType": "uint256",
          "name": "subtractedValue",
          "type": "uint256"
        }
      ],
      "name": "decreaseAllowance",
      "outputs": [
        {
          "internalType": "bool",
          "name": "",
          "type": "bool"
        }
      ],
      "stateMutability": "nonpayable",
      "type": "function"
    },
    {
      "inputs": [
        {
          "internalType": "address",
          "name": "spender",
          "type": "address"
        },
        {
          "internalType": "uint256",
          "name": "addedValue",
          "type": "uint256"
        }
      ],
      "name": "increaseAllowance",
      "outputs": [
        {
          "internalType": "bool",
          "name": "",
          "type": "bool"
        }
      ],
      "stateMutability": "nonpayable",
      "type": "function"
    },
    {
      "inputs": [],
      "name": "name",
      "outputs": [
        {
          "internalType": "string",
          "name": "",
          "type": "string"
        }
      ],
      "stateMutability": "view",
      "type": "function",
      "constant": true
    },
    {
      "inputs": [],
      "name": "symbol",
      "outputs": [
        {
          "internalType": "string",
          "name": "",
          "type": "string"
        }
      ],
      "stateMutability": "view",
      "type": "function",
      "constant": true
    },
    {
      "inputs": [],
      "name": "totalSupply",
      "outputs": [
        {
          "internalType": "uint256",
          "name": "",
          "type": "uint256"
        }
      ],
      "stateMutability": "view",
      "type": "function",
      "constant": true
    },
    {
      "inputs": [
        {
          "internalType": "address",
          "name": "to",
          "type": "address"
        },
        {
          "internalType": "uint256",
          "name": "amount",
          "type": "uint256"
        }
      ],
      "name": "transfer",
      "outputs": [
        {
          "internalType": "bool",
          "name": "",
          "type": "bool"
        }
      ],
      "stateMutability": "nonpayable",
      "type": "function"
    },
    {
      "inputs": [
        {
          "internalType": "address",
          "name": "from",
          "type": "address"
        },
        {
          "internalType": "address",
          "name": "to",
          "type": "address"
        },
        {
          "internalType": "uint256",
          "name": "amount",
          "type": "uint256"
        }
      ],
      "name": "transferFrom",
      "outputs": [
        {
          "internalType": "bool",
          "name": "",
          "type": "bool"
        }
      ],
      "stateMutability": "nonpayable",
      "type": "function"
    },
    {
      "inputs": [
        {
          "internalType": "uint256",
          "name": "_daiAmount",
          "type": "uint256"
        }
      ],
      "name": "calculateDaiToHornBill",
      "outputs": [
        {
          "internalType": "uint256",
          "name": "",
          "type": "uint256"
        }
      ],
      "stateMutability": "view",
      "type": "function",
      "constant": true
    }
  ],
  "bytecode": "0x60a06040523480156200001157600080fd5b50604051620018bd380380620018bd83398181016040528101906200003791906200022c565b6040518060400160405280600881526020017f486f726e42696c6c0000000000000000000000000000000000000000000000008152506040518060400160405280600281526020017f48420000000000000000000000000000000000000000000000000000000000008152508160039080519060200190620000bb92919062000112565b508060049080519060200190620000d492919062000112565b5050508073ffffffffffffffffffffffffffffffffffffffff1660808173ffffffffffffffffffffffffffffffffffffffff168152505050620002c3565b82805462000120906200028d565b90600052602060002090601f01602090048101928262000144576000855562000190565b82601f106200015f57805160ff191683800117855562000190565b8280016001018555821562000190579182015b828111156200018f57825182559160200191906001019062000172565b5b5090506200019f9190620001a3565b5090565b5b80821115620001be576000816000905550600101620001a4565b5090565b600080fd5b600073ffffffffffffffffffffffffffffffffffffffff82169050919050565b6000620001f482620001c7565b9050919050565b6200020681620001e7565b81146200021257600080fd5b50565b6000815190506200022681620001fb565b92915050565b600060208284031215620002455762000244620001c2565b5b6000620002558482850162000215565b91505092915050565b7f4e487b7100000000000000000000000000000000000000000000000000000000600052602260045260246000fd5b60006002820490506001821680620002a657607f821691505b60208210811415620002bd57620002bc6200025e565b5b50919050565b6080516115de620002df60003960006103da01526115de6000f3fe608060405234801561001057600080fd5b50600436106100cf5760003560e01c8063395093511161008c578063a457c2d711610066578063a457c2d71461022a578063a9059cbb1461025a578063b1ef47e71461028a578063dd62ed3e146102ba576100cf565b806339509351146101ac57806370a08231146101dc57806395d89b411461020c576100cf565b806306fdde03146100d4578063095ea7b3146100f257806318160ddd1461012257806323b872dd146101405780632c38727514610170578063313ce5671461018e575b600080fd5b6100dc6102ea565b6040516100e99190610c21565b60405180910390f35b61010c60048036038101906101079190610cdc565b61037c565b6040516101199190610d37565b60405180910390f35b61012a61039f565b6040516101379190610d61565b60405180910390f35b61015a60048036038101906101559190610d7c565b6103a9565b6040516101679190610d37565b60405180910390f35b6101786103d8565b6040516101859190610dde565b60405180910390f35b6101966103fc565b6040516101a39190610e15565b60405180910390f35b6101c660048036038101906101c19190610cdc565b610405565b6040516101d39190610d37565b60405180910390f35b6101f660048036038101906101f19190610e30565b61043c565b6040516102039190610d61565b60405180910390f35b610214610484565b6040516102219190610c21565b60405180910390f35b610244600480360381019061023f9190610cdc565b610516565b6040516102519190610d37565b60405180910390f35b610274600480360381019061026f9190610cdc565b61058d565b6040516102819190610d37565b60405180910390f35b6102a4600480360381019061029f9190610e5d565b6105b0565b6040516102b19190610d61565b60405180910390f35b6102d460048036038101906102cf9190610e8a565b610617565b6040516102e19190610d61565b60405180910390f35b6060600380546102f990610ef9565b80601f016020809104026020016040519081016040528092919081815260200182805461032590610ef9565b80156103725780601f1061034757610100808354040283529160200191610372565b820191906000526020600020905b81548152906001019060200180831161035557829003601f168201915b5050505050905090565b60008061038761069e565b90506103948185856106a6565b600191505092915050565b6000600254905090565b6000806103b461069e565b90506103c1858285610871565b6103cc8585856108fd565b60019150509392505050565b7f000000000000000000000000000000000000000000000000000000000000000081565b60006012905090565b60008061041061069e565b90506104318185856104228589610617565b61042c9190610f5a565b6106a6565b600191505092915050565b60008060008373ffffffffffffffffffffffffffffffffffffffff1673ffffffffffffffffffffffffffffffffffffffff168152602001908152602001600020549050919050565b60606004805461049390610ef9565b80601f01602080910402602001604051908101604052809291908181526020018280546104bf90610ef9565b801561050c5780601f106104e15761010080835404028352916020019161050c565b820191906000526020600020905b8154815290600101906020018083116104ef57829003601f168201915b5050505050905090565b60008061052161069e565b9050600061052f8286610617565b905083811015610574576040517f08c379a000000000000000000000000000000000000000000000000000000000815260040161056b90611022565b60405180910390fd5b61058182868684036106a6565b60019250505092915050565b60008061059861069e565b90506105a58185856108fd565b600191505092915050565b60006714d1120d7b1600006105c361039f565b6105cd9190611189565b6714d1120d7b160000836105df61039f565b6105e99190610f5a565b6105f39190611189565b6105fd91906111d4565b672e426101834d55fc6106109190611208565b9050919050565b6000600160008473ffffffffffffffffffffffffffffffffffffffff1673ffffffffffffffffffffffffffffffffffffffff16815260200190815260200160002060008373ffffffffffffffffffffffffffffffffffffffff1673ffffffffffffffffffffffffffffffffffffffff16815260200190815260200160002054905092915050565b600033905090565b600073ffffffffffffffffffffffffffffffffffffffff168373ffffffffffffffffffffffffffffffffffffffff161415610716576040517f08c379a000000000000000000000000000000000000000000000000000000000815260040161070d906112d4565b60405180910390fd5b600073ffffffffffffffffffffffffffffffffffffffff168273ffffffffffffffffffffffffffffffffffffffff161415610786576040517f08c379a000000000000000000000000000000000000000000000000000000000815260040161077d90611366565b60405180910390fd5b80600160008573ffffffffffffffffffffffffffffffffffffffff1673ffffffffffffffffffffffffffffffffffffffff16815260200190815260200160002060008473ffffffffffffffffffffffffffffffffffffffff1673ffffffffffffffffffffffffffffffffffffffff168152602001908152602001600020819055508173ffffffffffffffffffffffffffffffffffffffff168373ffffffffffffffffffffffffffffffffffffffff167f8c5be1e5ebec7d5bd14f71427d1e84f3dd0314c0f7b2291e5b200ac8c7c3b925836040516108649190610d61565b60405180910390a3505050565b600061087d8484610617565b90507fffffffffffffffffffffffffffffffffffffffffffffffffffffffffffffffff81146108f757818110156108e9576040517f08c379a00000000000000000000000000000000000000000000000000000000081526004016108e0906113d2565b60405180910390fd5b6108f684848484036106a6565b5b50505050565b600073ffffffffffffffffffffffffffffffffffffffff168373ffffffffffffffffffffffffffffffffffffffff16141561096d576040517f08c379a000000000000000000000000000000000000000000000000000000000815260040161096490611464565b60405180910390fd5b600073ffffffffffffffffffffffffffffffffffffffff168273ffffffffffffffffffffffffffffffffffffffff1614156109dd576040517f08c379a00000000000000000000000000000000000000000000000000000000081526004016109d4906114f6565b60405180910390fd5b6109e8838383610b7e565b60008060008573ffffffffffffffffffffffffffffffffffffffff1673ffffffffffffffffffffffffffffffffffffffff16815260200190815260200160002054905081811015610a6e576040517f08c379a0000000000000000000000000000000000000000000000000000000008152600401610a6590611588565b60405180910390fd5b8181036000808673ffffffffffffffffffffffffffffffffffffffff1673ffffffffffffffffffffffffffffffffffffffff16815260200190815260200160002081905550816000808573ffffffffffffffffffffffffffffffffffffffff1673ffffffffffffffffffffffffffffffffffffffff1681526020019081526020016000206000828254610b019190610f5a565b925050819055508273ffffffffffffffffffffffffffffffffffffffff168473ffffffffffffffffffffffffffffffffffffffff167fddf252ad1be2c89b69c2b068fc378daa952ba7f163c4a11628f55a4df523b3ef84604051610b659190610d61565b60405180910390a3610b78848484610b83565b50505050565b505050565b505050565b600081519050919050565b600082825260208201905092915050565b60005b83811015610bc2578082015181840152602081019050610ba7565b83811115610bd1576000848401525b50505050565b6000601f19601f8301169050919050565b6000610bf382610b88565b610bfd8185610b93565b9350610c0d818560208601610ba4565b610c1681610bd7565b840191505092915050565b60006020820190508181036000830152610c3b8184610be8565b905092915050565b600080fd5b600073ffffffffffffffffffffffffffffffffffffffff82169050919050565b6000610c7382610c48565b9050919050565b610c8381610c68565b8114610c8e57600080fd5b50565b600081359050610ca081610c7a565b92915050565b6000819050919050565b610cb981610ca6565b8114610cc457600080fd5b50565b600081359050610cd681610cb0565b92915050565b60008060408385031215610cf357610cf2610c43565b5b6000610d0185828601610c91565b9250506020610d1285828601610cc7565b9150509250929050565b60008115159050919050565b610d3181610d1c565b82525050565b6000602082019050610d4c6000830184610d28565b92915050565b610d5b81610ca6565b82525050565b6000602082019050610d766000830184610d52565b92915050565b600080600060608486031215610d9557610d94610c43565b5b6000610da386828701610c91565b9350506020610db486828701610c91565b9250506040610dc586828701610cc7565b9150509250925092565b610dd881610c68565b82525050565b6000602082019050610df36000830184610dcf565b92915050565b600060ff82169050919050565b610e0f81610df9565b82525050565b6000602082019050610e2a6000830184610e06565b92915050565b600060208284031215610e4657610e45610c43565b5b6000610e5484828501610c91565b91505092915050565b600060208284031215610e7357610e72610c43565b5b6000610e8184828501610cc7565b91505092915050565b60008060408385031215610ea157610ea0610c43565b5b6000610eaf85828601610c91565b9250506020610ec085828601610c91565b9150509250929050565b7f4e487b7100000000000000000000000000000000000000000000000000000000600052602260045260246000fd5b60006002820490506001821680610f1157607f821691505b60208210811415610f2557610f24610eca565b5b50919050565b7f4e487b7100000000000000000000000000000000000000000000000000000000600052601160045260246000fd5b6000610f6582610ca6565b9150610f7083610ca6565b9250827fffffffffffffffffffffffffffffffffffffffffffffffffffffffffffffffff03821115610fa557610fa4610f2b565b5b828201905092915050565b7f45524332303a2064656372656173656420616c6c6f77616e63652062656c6f7760008201527f207a65726f000000000000000000000000000000000000000000000000000000602082015250565b600061100c602583610b93565b915061101782610fb0565b604082019050919050565b6000602082019050818103600083015261103b81610fff565b9050919050565b60008160011c9050919050565b6000808291508390505b60018511156110995780860481111561107557611074610f2b565b5b60018516156110845780820291505b808102905061109285611042565b9450611059565b94509492505050565b6000826110b2576001905061116e565b816110c0576000905061116e565b81600181146110d657600281146110e05761110f565b600191505061116e565b60ff8411156110f2576110f1610f2b565b5b8360020a91508482111561110957611108610f2b565b5b5061116e565b5060208310610133831016604e8410600b84101617156111445782820a90508381111561113f5761113e610f2b565b5b61116e565b611151848484600161104f565b9250905081840481111561116857611167610f2b565b5b81810290505b9392505050565b600067ffffffffffffffff82169050919050565b600061119482610ca6565b915061119f83611175565b92506111cc7fffffffffffffffffffffffffffffffffffffffffffffffffffffffffffffffff84846110a2565b905092915050565b60006111df82610ca6565b91506111ea83610ca6565b9250828210156111fd576111fc610f2b565b5b828203905092915050565b600061121382610ca6565b915061121e83610ca6565b9250817fffffffffffffffffffffffffffffffffffffffffffffffffffffffffffffffff048311821515161561125757611256610f2b565b5b828202905092915050565b7f45524332303a20617070726f76652066726f6d20746865207a65726f2061646460008201527f7265737300000000000000000000000000000000000000000000000000000000602082015250565b60006112be602483610b93565b91506112c982611262565b604082019050919050565b600060208201905081810360008301526112ed816112b1565b9050919050565b7f45524332303a20617070726f766520746f20746865207a65726f20616464726560008201527f7373000000000000000000000000000000000000000000000000000000000000602082015250565b6000611350602283610b93565b915061135b826112f4565b604082019050919050565b6000602082019050818103600083015261137f81611343565b9050919050565b7f45524332303a20696e73756666696369656e7420616c6c6f77616e6365000000600082015250565b60006113bc601d83610b93565b91506113c782611386565b602082019050919050565b600060208201905081810360008301526113eb816113af565b9050919050565b7f45524332303a207472616e736665722066726f6d20746865207a65726f20616460008201527f6472657373000000000000000000000000000000000000000000000000000000602082015250565b600061144e602583610b93565b9150611459826113f2565b604082019050919050565b6000602082019050818103600083015261147d81611441565b9050919050565b7f45524332303a207472616e7366657220746f20746865207a65726f206164647260008201527f6573730000000000000000000000000000000000000000000000000000000000602082015250565b60006114e0602383610b93565b91506114eb82611484565b604082019050919050565b6000602082019050818103600083015261150f816114d3565b9050919050565b7f45524332303a207472616e7366657220616d6f756e742065786365656473206260008201527f616c616e63650000000000000000000000000000000000000000000000000000602082015250565b6000611572602683610b93565b915061157d82611516565b604082019050919050565b600060208201905081810360008301526115a181611565565b905091905056fea26469706673582212200dfb471e30431d4b0838e981f5560adfd2c631ca815c5ed077b4f3ce7198fa4964736f6c634300080b0033",
  "immutableReferences": {
    "1031": [
      {
        "length": 32,
        "start": 986
      }
    ]
  },
  "source": "// SPDX-License-Identifier: MIT\r\n\r\npragma solidity ^0.8.0;\r\n\r\nimport \"@openzeppelin/contracts/token/ERC20/ERC20.sol\";\r\nimport \"@openzeppelin/contracts/token/ERC20/IERC20.sol\";\r\nimport \"@openzeppelin/contracts/utils/math/SafeMath.sol\";\r\n\r\ncontract HornBill is ERC20 {\r\n    address public immutable daiAddress;\r\n\r\n    constructor(address _daiAddress) ERC20(\"HornBill\", \"HB\") {\r\n        daiAddress = _daiAddress;\r\n    }\r\n\r\n    function calculateDaiToHornBill(uint256 _daiAmount)\r\n        public\r\n        view\r\n        returns (uint256)\r\n    {\r\n        return\r\n            (3333333333333333500) *\r\n            (((totalSupply() + _daiAmount)**(1500000000000000000)) -\r\n                ((totalSupply())**(1500000000000000000)));\r\n    }\r\n}\r\n",
  "sourcePath": "C:\\Users\\Spidy\\Desktop\\hornbill_token\\contracts\\HornBill.sol",
  "compiler": {
    "name": "solc",
    "version": "0.8.11+commit.d7f03943.Emscripten.clang"
  },
  "schemaVersion": "3.4.5",
  "updatedAt": "2022-05-03T08:56:38.201Z",
  "networkType": "ethereum",
  "devdoc": {
    "kind": "dev",
    "methods": {
      "allowance(address,address)": {
        "details": "See {IERC20-allowance}."
      },
      "approve(address,uint256)": {
        "details": "See {IERC20-approve}. NOTE: If `amount` is the maximum `uint256`, the allowance is not updated on `transferFrom`. This is semantically equivalent to an infinite approval. Requirements: - `spender` cannot be the zero address."
      },
      "balanceOf(address)": {
        "details": "See {IERC20-balanceOf}."
      },
      "decimals()": {
        "details": "Returns the number of decimals used to get its user representation. For example, if `decimals` equals `2`, a balance of `505` tokens should be displayed to a user as `5.05` (`505 / 10 ** 2`). Tokens usually opt for a value of 18, imitating the relationship between Ether and Wei. This is the value {ERC20} uses, unless this function is overridden; NOTE: This information is only used for _display_ purposes: it in no way affects any of the arithmetic of the contract, including {IERC20-balanceOf} and {IERC20-transfer}."
      },
      "decreaseAllowance(address,uint256)": {
        "details": "Atomically decreases the allowance granted to `spender` by the caller. This is an alternative to {approve} that can be used as a mitigation for problems described in {IERC20-approve}. Emits an {Approval} event indicating the updated allowance. Requirements: - `spender` cannot be the zero address. - `spender` must have allowance for the caller of at least `subtractedValue`."
      },
      "increaseAllowance(address,uint256)": {
        "details": "Atomically increases the allowance granted to `spender` by the caller. This is an alternative to {approve} that can be used as a mitigation for problems described in {IERC20-approve}. Emits an {Approval} event indicating the updated allowance. Requirements: - `spender` cannot be the zero address."
      },
      "name()": {
        "details": "Returns the name of the token."
      },
      "symbol()": {
        "details": "Returns the symbol of the token, usually a shorter version of the name."
      },
      "totalSupply()": {
        "details": "See {IERC20-totalSupply}."
      },
      "transfer(address,uint256)": {
        "details": "See {IERC20-transfer}. Requirements: - `to` cannot be the zero address. - the caller must have a balance of at least `amount`."
      },
      "transferFrom(address,address,uint256)": {
        "details": "See {IERC20-transferFrom}. Emits an {Approval} event indicating the updated allowance. This is not required by the EIP. See the note at the beginning of {ERC20}. NOTE: Does not update the allowance if the current allowance is the maximum `uint256`. Requirements: - `from` and `to` cannot be the zero address. - `from` must have a balance of at least `amount`. - the caller must have allowance for ``from``'s tokens of at least `amount`."
      }
    },
    "version": 1
  },
  "userdoc": {
    "kind": "user",
    "methods": {},
    "version": 1
  }
}